:020000040800F2
:1000000028060120254601082D4601082F46010833
:10001000314601083346010835460108000000005A
:100020000000000000000000000000009D0100082A
:100030003946010800000000F10100080F560108D0
:100040003F4601083F4601083F4601083F46010878
:100050003F4601083F4601083F4601083F46010868
:100060003F4601083F4601083F4601083F46010858
:100070003F4601083F460108055601083F46010872
:10008000375601083F4601083F4601083F46010830
:100090003F4601083F4601083F4601083F46010828
:1000A0003F4601083F4601083F4601083F46010818
:1000B0003F4601083F4601083F4601083F46010808
:1000C0003F4601083F4601083F4601083F460108F8
:1000D000415601083F4601083F4601083F460108D6
:1000E0003F4601083F4601083F4601083F460108D8
:1000F0003F4601083F4601083F4601083F460108C8
:100100003F4601083F4601083F46010823560108C3
:100110003F4601083F4601083F4601083F460108A7
:100120003F4601083F4601083F4601083F46010897
:100130003F4601083F4601083F4601083F46010887
:100140003F4601083F4601083F4601082D56010879
:100150003F4601083F4601083F4601083F46010867
:100160003F4601083F4601083F4601083F46010857
:100170003F4601083F4601083F46010800000000D5
:100180003F4601083F460108DFF80CD017F03AF867
:1001900000480047C1460108280601202A4B19687B
:1001A0000868B0E8F04F80F30988BFF36F8F4FF015
:1001B000000080F3118870470000000006480068C6
:1001C000006880F3088862B661B6BFF34F8FBFF353
:1001D0006F8F00DF00BF00BF08ED00E0DFF80C000C
:1001E000016841F470010160704700BF88ED00E0D4
:1001F000EFF30980BFF36F8F134B1A681EF0100FD7
:1002000008BF20ED108A20E9F04F106008B44FF0CD
:10021000500080F31188BFF34F8FBFF36F8F12F040
:100220008FFC4FF0000080F3118808BC1968086843
:10023000B0E8F04F1EF0100F08BFB0EC108A80F34A
:100240000988BFF36F8F7047C0010020EFF305806E
:100250007047000070472DE9F047044600264FF034
:100260000208B1464FF0010A0025002714B9012009
:10027000BDE8F087FE492068884203D0FD49206828
:10028000884200D103E0DC21FBA014F0FAFA606898
:1002900058B16068B0F5807F07D06068B0F5007F26
:1002A00003D06068B0F5407F00D103E0DD21F2A00B
:1002B00014F0E7FAA06858B1A068102808D0A06828
:1002C000202805D0A068302802D0A068B02800D12E
:1002D00003E0DE21E8A014F0D4FAE06840B1E06861
:1002E000012805D0E068032802D0E068052800D185
:1002F00003E0DF21E0A014F0C4FA2069B0F5007F2C
:1003000001D0206900B903E0E021DBA014F0B9FAC4
:100310006069B0F5FA5F03D3E6496069884202D9A3
:100320006069022800D103E0E121D3A014F0A9FA0A
:10033000A06910B1A069082800D103E0E221CEA095
:1003400014F09FFAE069012801D0E06900B903E0E8
:10035000E321C9A014F095FA206A10B1206A01289F
:1003600000D103E0E421C4A014F08BFA94F83D001E
:1003700010B9204614F0A2FF022084F83D00206846
:10038000C06940F6BF7188432168C86102202168B6
:1003900008622068C6696069022873D0E06808B105
:1003A0004FF0020AE06901280CD1C348006800F44C
:1003B000000028B9C048006840F40000BE49086049
:1003C000BE4F3CE0BC480838006800F08060B0F1E7
:1003D000806F03D0012084F83D0049E7B6480068EB
:1003E00000F4000028B1B448006820F40000B249CD
:1003F0000860B148001F006800F48000B0F5800F6D
:1004000008D1AD48001F006800F03F00AC49B1FBC7
:10041000F0F707E0A848001F006800F03F00A94976
:10042000B1FBF0F7A4487C300068C0F38810474364
:10043000A1487C300068C0F30270B7FBF0F7206978
:10044000B0F5007F08D1380A00EB800041006069F8
:10045000B1FBF0F0451D0AE04FEA4A10B7FBF0F09F
:1004600000EB800041006069B1FBF0F0451D0A20FF
:10047000B5FBF0F505F00109A5EB09004FEA5008BE
:100480004FEA0929B8F1020F02D3B8F1FF0F03D9DF
:100490004FF002084FF00009206940EA090040EAE5
:1004A000080021680862606840F40060A1680843A1
:1004B000E1680843A169084306432068C661206AD1
:1004C00001284BD16A492068884201D17E4801E069
:1004D0004FF04020C06940F6BF718843644A2168EC
:1004E000914201D1784901E04FF04021C8610220DA
:1004F0005F4A2168914201D1734901E04FF04021E8
:1005000008625B492068884201D16F4801E04FF0E2
:100510004020C6696068B0F5007F01D0606810B9FE
:100520004FF4807508E06068B0F5407F03D06068E4
:10053000B0F5807F00D1002545F40060A168084334
:10054000E1680843A1690843064349492068884295
:1005500001D15D4801E04FF04020C66100202064D9
:10056000012084F83D00002082E6704710B5044663
:100570000CB9012010BD022084F83D00204614F083
:1005800037FF0020206484F83D0000BF84F83C0061
:1005900000BF00BFEEE72DE9F04104460E461746C6
:1005A0001D464FF0000803F0B0FB8046FFB913E092
:1005B000681C88B12DB103F0A8FBA0EB0800A8428D
:1005C0000AD9012084F83D0000BF002084F83C00D7
:1005D00000BF0320BDE8F081206880683040B04251
:1005E00001D1012000E000200028E1D01DE012E050
:1005F000681C80B12DB103F088FBA0EB0800A84275
:1006000009D9012084F83D0000BF002084F83C0097
:1006100000BF0320DEE7206880683040B04201D18F
:10062000012000E000200028E2D10020D2E72DE9DF
:10063000F04704460E4615461F464FF00008C146D7
:1006400006B115B90120BDE8F08794F83D000128F6
:1006500075D12068C06900F007082068C06900F003
:100660000709B8F1030F02D0B9F1050F39D12DE018
:1006700000380040003C00402E2E5C2E2E5C447260
:1006800069766572735C53544D3332463478785FC3
:1006900048414C5F4472697665725C5372635C7367
:1006A000746D3332663478785F68616C5F69327379
:1006B0002E63000000EE0200083802400080BB00FC
:1006C00000127A000024F400003400404FF6FF705E
:1006D00000EA450020854FF6FF7000EA450060857E
:1006E00001E02585658500BF94F83C00012801D113
:1006F0000220A8E7012084F83C0000BF122084F803
:100700003D002068C06900F48060B0F5806F05D0BE
:100710002068C06940F480602168C86110E036F844
:10072000020B2168C860608D401E60853B46002238
:1007300002212046FFF72FFF10B1032083E714E0CA
:10074000608D0028EBDC3B46012280212046FFF72C
:1007500022FF08B1032076E7012084F83D0000BFA6
:10076000002084F83C0000BF6DE702206BE72DE914
:10077000F84304460E4615461F464FF00008C14692
:1007800006B115B90120BDE8F88394F83D000128B1
:1007900062D12068C06900F007082068C06900F0D5
:1007A0000709B8F1030F02D0B9F1050F0AD14FF6CE
:1007B000FF7000EA450020864FF6FF7000EA450012
:1007C000608601E02586658600BF94F83C0001281C
:1007D00001D10220D7E7012084F83C0000BF22208D
:1007E00084F83D002068C06900F48060B0F5806F37
:1007F00005D02068C06940F480602168C861206825
:10080000C06900F44070B0F5407F08D100BF206897
:10081000C068009020688068009000BF00BF0FE0B3
:100820003B46002201212046FFF7B5FE08B1032018
:10083000A9E72068C06826F8020B608E401E60861B
:10084000608E0028ECDC012084F83D0000BF002011
:1008500084F83C0000BF96E7022094E770B5034699
:100860000024002593F83D00012846D101B10AB9C2
:10087000012070BD59621868C06900F0070418684B
:10088000C06900F00705032C01D0052D0AD14FF6F1
:10089000FF7000EA420018854FF6FF7000EA420040
:1008A000588501E01A855A8500BF93F83C0001285D
:1008B00001D10220DDE7012083F83C0000BF1220B7
:1008C00083F83D00002018641868406840F0A000DC
:1008D0001E6870601868C06900F48060B0F5806FB1
:1008E00005D01868C06940F480601E68F06100BFE0
:1008F000002083F83C0000BFBBE70220B9E770B5D9
:1009000003460024002593F83D00012846D101B19B
:100910000AB9012070BDD9621868C06900F00704E7
:100920001868C06900F00705032C01D0052D0AD115
:100930004FF6FF7000EA420018864FF6FF7000EA9B
:100940004200588601E01A865A8600BF93F83C00A0
:10095000012801D10220DDE7012083F83C0000BF1F
:10096000222083F83D00002018641868406840F099
:1009700060001E6870601868C06900F48060B0F59F
:10098000806F05D01868C06940F480601E68F0610F
:1009900000BF002083F83C0000BFBBE70220B9E79E
:1009A000704770B50546AC6B0020608560860120FD
:1009B00084F83D00206C40F02000206420460FF0B9
:1009C00000FE70BD704770B50546AC6B28680068C6
:1009D00000F4807038BB002060852068406820F0FB
:1009E000020021684860206A012813D1F749206875
:1009F000884201D1F64801E04FF04020406820F0E5
:100A00000100F24A2168914201D1F14901E04FF021
:100A10004021486094F83D00322805D1608E10B91D
:100A2000012084F83D0002E0012084F83D002046CA
:100A30000FF07BFC70BD704770B50446A56B28466F
:100A40000FF07DFC70BD2DE9F743044615460027E5
:100A5000B846019800B115B90120BDE8FE8394F8AD
:100A60003D00012860D1019860622068C06900F0F3
:100A700007072068C06900F00708032F02D0B8F10B
:100A8000050F0AD14FF6FF7000EA450020854FF6AA
:100A9000FF7000EA4500608501E02585658500BF9F
:100AA00094F83C00012801D10220D6E7012084F807
:100AB0003C0000BF122084F83D0000202064AFF20B
:100AC0008700616B0864AFF20110616BC863AFF21D
:100AD0002D10616B886401AE238DD4F800C00CF139
:100AE0000C023168606B05F0BFF82068C06900F443
:100AF0008060B0F5806F05D02068C06940F48060E8
:100B00002168C8612068406800F00200022805D012
:100B10002068406840F002002168486000BF002063
:100B200084F83C0000BF98E7022096E7704770B554
:100B30000546AC6B2868006800F4807038BB2068FC
:100B4000406820F0010021684860206A012813D124
:100B50009E492068884201D19D4801E04FF0402025
:100B6000406820F00200994A2168914201D19849D9
:100B700001E04FF0402148600020608694F83D007D
:100B8000322805D1608D10B9012084F83D0002E0C3
:100B9000012084F83D0020460FF007FD70BD70472E
:100BA00070B50446A56B28460FF005FD70BD2DE914
:100BB000F74181B0044615460027B846029800B1B7
:100BC0001DB9012004B0BDE8F08194F83D00012872
:100BD00070D10298E0622068C06900F007072068C1
:100BE000C06900F00708032F02D0B8F1050F0AD141
:100BF0004FF6FF7000EA450020864FF6FF7000EACE
:100C00004500608601E02586658600BF94F83C00BB
:100C1000012801D10220D5E7012084F83C0000BF63
:100C2000222084F83D0000202064AFF28B00A16BED
:100C30000864AFF20510A16BC863AFF29920A16BF5
:100C400088642068C06900F44070B0F5407F08D126
:100C500000BF2068C068009020688068009000BFD6
:100C600000BF02AE238E3268D4F800C00CF10C0134
:100C7000A06B04F0F9FF2068C06900F48060B0F553
:100C8000806F05D02068C06940F480602168C86129
:100C90002068406800F0010028B92068406840F0F2
:100CA00001002168486000BF002084F83C0000BFBC
:100CB00088E7FFE7022085E7014600BF91F83C0086
:100CC000012801D102207047012081F83C0000BFBB
:100CD00091F83D00122806D10868406820F0020013
:100CE0000A68506049E091F83D00222806D1086862
:100CF000406820F001000A6850603EE091F83D0035
:100D000032283AD1486818B14868B0F5007F1AD146
:100D10000868406820F002000A6850602B4A0868A2
:100D2000904201D12A4801E04FF04020406820F075
:100D30000100264B0A689A4201D1254A01E04FF092
:100D40004022506019E00868406820F001000A68FD
:100D500050601E4A0868904201D11D4801E04FF0E2
:100D60004020406820F00200184B0A689A4201D1E6
:100D7000174A01E04FF04022506000BF002081F888
:100D80003C0000BF00BF9EE7014600BF91F83C0059
:100D9000012801D102207047012081F83C0000BFEA
:100DA00091F83D00122806D10868406840F0020022
:100DB0000A6850604DE091F83D0022280AD1086889
:100DC000406840F001000A68506042E0003800408E
:100DD0000034004091F83D0032283AD1486818B1FB
:100DE0004868B0F5007F1AD10868406840F00200FA
:100DF0000A685060F74A0868904201D1F64801E05D
:100E00004FF04020406840F00100F24B0A689A42DF
:100E100001D1F14A01E04FF04022506019E008682A
:100E2000406840F001000A685060EA4A0868904251
:100E300001D1E94801E04FF04020406840F0020055
:100E4000E44B0A689A4201D1E34A01E04FF04022A4
:100E500050600868C06900F4806028B90868C069FB
:100E600040F480600A68D06100BF002081F83C0037
:100E700000BF00BF8FE710B5044600BF94F83C00E8
:100E8000012801D1022010BD012084F83C0000BFE0
:100E90002068406820F002002168486020684068AF
:100EA00020F0010021684860206A012827D1C94943
:100EB0002068884201D1C84801E04FF040204068D6
:100EC00020F00200C34A2168914201D1C24901E0E9
:100ED0004FF040214860BF492068884201D1BE4898
:100EE00001E04FF04020406820F00100B94A21683D
:100EF000914201D1B84901E04FF040214860606B58
:100F000010B1606B04F002FFA06B10B1A06B04F095
:100F1000FDFE2068C06920F480602168C861206AF5
:100F2000012813D1AB492068884201D1AA4801E0C9
:100F30004FF04020C06920F48060A64A21689142A9
:100F400001D1A54901E04FF04021C861012084F89A
:100F50003D0000BF002084F83C0000BF00BF92E7C6
:100F600010B5044694F83D0012282ED100BF94F825
:100F70003C00012801D1022010BD012084F83C0072
:100F800000BF616A881C606208882168C860608D43
:100F9000401E6085608D88B92068406820F0A00000
:100FA00021684860012084F83D0000BF002084F8DB
:100FB0003C0000BF20460FF0B8F904E000BF00205D
:100FC00084F83C0000BF0020D6E70220D4E738B503
:100FD000044694F83D0022283FD100BF94F83C001D
:100FE000012801D1022038BD012084F83C0000BF57
:100FF0002068C06881B2E26A901CE0621180608E55
:10100000401E60862068C06900F44070B0F5407FE3
:1010100008D100BF2068C0680090206880680090F8
:1010200000BF00BF608E88B92068406820F0600073
:1010300021684860012084F83D0000BF002084F84A
:101040003C0000BF20460FF0B0FA04E000BF0020D3
:1010500084F83C0000BF0020C5E70220C3E77CB550
:1010600004460025002600200190206A01284FD068
:1010700094F83D00222823D12068806800F0010503
:1010800020684068C0F380161DB116B12046FFF7F6
:101090009EFF20688068C0F3801520684068C0F318
:1010A00040166DB166B100BF2068C068009020682E
:1010B0008068009000BF00BF206C40F002002064F8
:1010C00094F83D00122822D120688068C0F34005C2
:1010D00020684068C0F3C0161DB116B12046FFF766
:1010E0003FFF20688068C0F3C00520684068C0F3F7
:1010F0004016002D0BD0002EFCD000BF2068806869
:10110000009000BF00BF206C40F00100206428E187
:101110002068C06900F440752068C06900F440761A
:10112000B5F5007F01D0002E7DD12A492068884284
:1011300001D1294801E04FF04020806800F001050E
:1011400024492068884201D1234801E04FF0402023
:10115000406800F04006012D10D1402E0ED12068CD
:10116000C06900F440752068C06900F44076B5F5A8
:10117000007F00D016B920460BF011FD15492068FC
:10118000884201D1144801E04FF04020806800F00F
:10119000400510492068884201D10F4801E04FF016
:1011A0004020406800F02006402D20D1202E1ED186
:1011B00008492068884201D1074801E04FF04020EB
:1011C000C06880B2019003492068884206D1024875
:1011D00006E0000000380040003400404FF040209E
:1011E000806880B20190206C40F008002064206884
:1011F0008068C0F3400520684068C0F3C0167DB128
:1012000076B12068C06900F440752068C06900F4B8
:101210004076B5F5007F00D016B920460BF0BFFC34
:101220002068806800E014E0C0F3C00520684068D2
:10123000C0F34016002D0BD0002EFCD000BF20685C
:101240008068009000BF00BF206C40F00100206467
:1012500087E02068806800F0010520684068C0F3DE
:1012600080168DB186B12068C06900F44075206891
:10127000C06900F44076B5F5407F02D0B6F5807FB6
:1012800002D120460BF08BFC20688068C0F38015EB
:1012900020684068C0F340166DB166B100BF206899
:1012A000C068009020688068009000BF00BF206C7C
:1012B00040F00200206433492068884201D132485E
:1012C00001E04FF04020806800F002052D492068C1
:1012D000884201D12C4801E04FF04020406800F0E6
:1012E0008006022D12D1802E10D12068C06900F432
:1012F00040752068C06900F44076B5F5407F02D0A3
:10130000B6F5807F02D120460BF049FC1D492068CC
:10131000884201D11C4801E04FF04020806800F075
:10132000080518492068884201D1174801E04FF0AC
:101330004020406800F02006082D12D1202E10D148
:1013400010492068884201D10F4801E04FF0402049
:10135000806880B20190206C40F004002064BDF8E9
:101360000400206C28B1012084F83D0020460FF0D5
:1013700028F97CBD014691F83D0070470146086C94
:10138000704700000038004000340040704710B53E
:1013900004460CB9012010BD00BF2079012801D1FD
:1013A0000220F8E70120207100BF607910B92046C3
:1013B00013F038FF022060712068006840F00400DC
:1013C000216808600120607100BF0020207100BF0B
:1013D00000BFE0E7704710B504460CB9012010BD0E
:1013E0002068006820F00C002168086020684068D0
:1013F00020F0600021684860204613F01EFF0020A6
:10140000607100BF207100BF00BFE8E72DE9F04127
:1014100004460D460026002700BF2079012802D18E
:101420000220BDE8F0810120207100BF6079012811
:1014300020D10220607102F068FC06460CE002F048
:1014400064FC801B022807D90420607100BF0020C3
:10145000207100BF0320E4E72068406800F001002D
:101460000028ECD020688068A060A0682860012077
:10147000607100E0012700BF0020207100BF3846E6
:10148000CFE70146002200BF0879012801D10220E0
:1014900070470120087100BF487901280CD1022053
:1014A000487100BF0020087100BF0868006840F064
:1014B00008000B68186004E000BF0020087100BF3E
:1014C00001221046E4E77047704710B504462068D3
:1014D0004068C0F3401020B920684068C0F3801015
:1014E00040B1042060712046FFF7EEFF6FF060000E
:1014F000216848602068406800F0010088B12068D9
:10150000006820F008002168086020688068A060FA
:101510006079042805D0012060712046A168FFF79A
:10152000D2FF10BD10B5044604F108012046FFF7B4
:101530006DFF08B9A06810BD0020FCE7014600223D
:1015400000BF0879012801D10220704701200871ED
:1015500000BF02204871086882680868006840F08F
:1015600008000B6818601046EFE70146886870476E
:10157000014648797047000070B5044600250026F2
:101580002068012803D32068032800D804E04FF422
:10159000BF7180A013F075F9207800F001000028D9
:1015A00054D0A068022803D3A068072800D804E01C
:1015B0004FF4C27177A013F064F96068C02804D3B7
:1015C0006068B0F5D87F00D804E040F2851171A0C2
:1015D00013F057F900207F49886602F096FB054614
:1015E00006E002F092FB401B642801D9032070BD85
:1015F00079480068C0F3C0600028F2D147F6C07196
:1016000091FAA1F1B1FA81F1606888404FF0E042AF
:1016100092FAA2F2B2FA82F2A168914008436E49AE
:101620008431086001206B49886602F06EFB054634
:1016300006E002F06AFB401B642801D90320D6E7CC
:1016400065480068C0F3C0600028F2D0207800F040
:101650000200022874D160484030006840F0805099
:101660005D49403108605D48006840F480705B4926
:10167000086002F04AFB054606E002F046FB401B0C
:10168000642801D90320B2E75448006800F4807050
:101690000028F2D050487030006800F44070A189F2
:1016A00001F4407188420CD04B487030006820F43F
:1016B000407601204A4908600020086046487030A2
:1016C0000660E068B0F5807F13D102F01EFB05468E
:1016D00008E002F01AFB401B41F28831884201D930
:1016E000032084E73C4870300068C0F340000028C5
:1016F000EFD000BFA08900F44070B0F5407F0CD15E
:1017000035480830006820F4F810364AE168114086
:10171000084331490831086007E02F480830006865
:1017200020F4F8102C49083108602B48703000680C
:10173000A189C1F30B01084327497031086000BF3C
:10174000002054E703220260234A8432126847F6DD
:10175000C0731A4093FAA3F3B3FA83F3DA404260FA
:101760001D4A8432126802F0E0424FF0E04393FADF
:10177000A3F3B3FA83F3DA408260174A083212689F
:1017800002F4F811144A7032126802F440720A43EB
:10179000C26070472E2E5C2E2E5C44726976657294
:1017A000735C53544D3332463478785F48414C5F14
:1017B0004472697665725C5372635C73746D333224
:1017C000663478785F68616C5F7263635F65782EFA
:1017D00063000000000047420038024000700040F3
:1017E000400E4742FFFCFF0F704770B504460026CD
:1017F00000250CB9012070BDEF492068884207D050
:10180000EE492068884203D0ED492068884200D123
:1018100004E04FF49671EBA013F033F8606820B148
:10182000F7496068884200D804E040F22D11E5A035
:1018300013F027F8A06818B1A068B0F5804F00D168
:1018400004E04FF49771DFA013F01BF8E0686FF32A
:10185000090000B904E040F22F11DAA013F011F8EA
:101860002069B0F5804F03D02069B0F5404F00D11A
:1018700004E04FF49871D3A013F003F8606910B13D
:101880006069012800D104E040F23111CDA012F0CE
:10189000F8FFA06920F0FE0000B904E04FF4997150
:1018A000C8A012F0EEFFE06910B1E069402800D155
:1018B00004E040F23311C3A012F0E3FF206A10B13C
:1018C000206A802800D104E04FF49A71BDA012F084
:1018D000D8FF94F8350010B9204613F014FC02200C
:1018E00084F835002068006820F001002168086055
:1018F00009F0C2FE0546C348B5FBF0F62068466015
:10190000C1496068884201D8701C07E04FF49670A6
:1019100070434FF47A71B0FBF1F0401C216808620B
:10192000B949606888420ED860684000B5FBF0F0A5
:10193000C0F30B00042801D204202DE060684000B1
:10194000B5FBF0F028E0A06828B9606800EB400023
:10195000B5FBF0F008E0606800EBC00101EB00109F
:10196000B5FBF0F040F48040C0F30B0008B9012053
:1019700012E0A06828B9606800EB4000B5FBF0F009
:1019800008E0606800EBC00101EB0010B5FBF0F06F
:1019900040F4804040F400402168C861D4E9070168
:1019A000084321680860D4E903100843216888606F
:1019B000D4E9050108432168C8602068006840F048
:1019C0000100216808600020A063012084F8350030
:1019D000002010E7704710B504460CB9012010BD77
:1019E00075492068884207D074492068884203D02E
:1019F00073492068884200D104E040F2771171A059
:101A000012F03FFF022084F835002068006820F0C3
:101A1000010021680860204613F093FB0020A063BA
:101A200084F8350000BF84F8340000BF00BFD6E75B
:101A30002DE9F04105460C4617461E464FF00008BA
:101A400002F063F9804687BB13E0701C88B12EB1A9
:101A500002F05BF9A0EB0800B0420AD9012085F83A
:101A6000350000BF002085F8340000BF0320BDE82A
:101A7000F081C4F3074001280AD128684069A1B267
:101A80000840A1B2884201D101200BE0002009E00A
:101A900028688069A1B20840A1B2884201D1012022
:101AA00000E000200028D0D02FE0FFE712E0701CFB
:101AB00080B12EB102F029F9A0EB0800B04209D99B
:101AC000012085F8350000BF002085F8340000BFF4
:101AD0000320CCE7C4F3074001280AD128684069F5
:101AE000A1B20840A1B2884201D101200BE0002040
:101AF00009E028688069A1B20840A1B2884201D1FA
:101B0000012000E000200028D1D10020AFE72DE91E
:101B1000F04104460D461646002702F0F6F8074647
:101B20002DE020684069C0F38020B0B120680068D3
:101B300040F40070216808606FF48060216848619B
:101B40000420A063012084F8350000BF002084F841
:101B5000340000BF0120BDE8F081701C78B126B1CF
:101B600002F0D3F8C01BB04209D9012084F8350037
:101B700000BF002084F8340000BF0320EBE7C5F36A
:101B8000074001280AD120684069A9B20840A9B2DB
:101B9000884201D101200BE0002009E02068806923
:101BA000A9B20840A9B2884201D1012000E000207A
:101BB0000028B6D00020CEE7005400400058004076
:101BC000005C00402E2E5C2E2E5C4472697665729D
:101BD000735C53544D3332463478785F48414C5FE0
:101BE0004472697665725C5372635C73746D3332F0
:101BF000663478785F68616C5F6932632E630000D9
:101C0000801A060040420F00A086010070B504460D
:101C10000D4616462068006840F480702168086010
:101C2000334600224FF001112046FFF701FF08B1B3
:101C3000032070BD2069B0F5804F04D105F0FE008F
:101C40002168086116E005F44070F02141EAE010D7
:101C5000216808613246FA492046FFF758FF30B143
:101C6000A06B042801D10120E3E70320E1E7E8B2FB
:101C7000216808613246F249891F2046FFF747FF75
:101C800030B1A06B042801D10120D2E70320D0E7B6
:101C90000020CEE72DE9F8430446884615461E4647
:101CA000089F94F8350001287DD105B116B90120AF
:101CB000BDE8F88320688069C0F3400008B10220C5
:101CC000F6E700BF94F83400012801D10220EFE7C5
:101CD000012084F8340000BF122084F83500002071
:101CE000A0633A4641462046FFF790FF80B1A06BC3
:101CF000042806D100BF002084F8340000BF012072
:101D0000D6E700BF002084F8340000BF0320CFE7EF
:101D100000BF20684069009020688069009000BF83
:101D200000BF1BE03B460022C54978312046FFF743
:101D30007FFE08B10320BBE715F8010B216808619D
:101D4000701E86B220684069C0F3800030B12EB1A9
:101D500015F8010B21680861701E86B2002EE1DCC7
:101D60003B460022B64978312046FFF761FE08B1B4
:101D700003209DE72068006840F400702168086037
:101D80003B460122AF492046FFF752FE10B1032027
:101D90008EE708E0012084F8350000BF002084F8B9
:101DA000340000BF84E7022082E7F8B504460D4600
:101DB00016462068006840F480602168086020684A
:101DC000006840F4807021680860334600224FF0BC
:101DD00001112046FFF72CFE08B10320F8BD206951
:101DE000B0F5804F05D1E8B240F0010021680861EC
:101DF00044E005F44070F02141EAE01021680861F8
:101E000032468F492046FFF782FE30B1A06B04288E
:101E100001D10120E2E70320E0E7E8B22168086190
:101E200032468749891F2046FFF771FE30B1A06B0B
:101E3000042801D10120D1E70320CFE700BF2068AB
:101E40004069009020688069009000BF00BF206852
:101E5000006840F4807021680860334600224FF02B
:101E600001112046FFF7E4FD08B10320B6E705F4B1
:101E70004070F12141EAE010216808613246704962
:101E8000891F2046FFF743FE30B1A06B042801D123
:101E90000120A3E70320A1E700209FE72DE9F843F5
:101EA0000446884615461E46089F94F835000128CA
:101EB00071D105B116B90120BDE8F88320688069A9
:101EC000C0F3400008B10220F6E700BF94F83400E8
:101ED000012801D10220EFE7012084F8340000BF7F
:101EE000222084F835000020A0633A46414620466F
:101EF000FFF75BFF80B1A06B042806D100BF002074
:101F000084F8340000BF0120D6E700BF002084F829
:101F1000340000BF0320CFE7012E15D120680068F0
:101F200020F480602168086000BF2068406900904C
:101F300020688069009000BF00BF2068006840F4FE
:101F400000702168086025E0022E14D12068006826
:101F500020F48060216808602068006840F4006018
:101F60002168086000BF206840690090206880698F
:101F7000009000BF0EE02068006840F48060216897
:101F8000086000BF20684069009020688069009068
:101F900000BF00BF85E09FE0032E68DC012E10D15A
:101FA0003B460022264938312046FFF741FD08B163
:101FB000032081E72068006905F8010B701E86B2D6
:101FC0006FE0022E1CD13B4600221D49091F20460E
:101FD000FFF72EFD08B103206EE72068006840F48B
:101FE0000070216808602068006905F8010B701E08
:101FF00086B22068006905F8010B701E86B250E0B9
:102000003B4600220E49091F2046FFF711FD08B18B
:10201000032051E72068006820F480602168086090
:102020002068006905F8010B701E86B23B4600224D
:102030000349091F2046FFF7FBFC28B103203BE7BB
:1020400008000100020010002068006840F40070E1
:10205000216808602068006905F8010B701E86B2CF
:102060002068006905F8010B701E86B219E03B4636
:102070000022F8492046FFF7DBFC08B103201BE7EC
:102080002068006905F8010B701E86B2206840695F
:10209000C0F3800028B12068006905F8010B701EAC
:1020A00086B2002E3FF778AF2068006820F4006009
:1020B000216808603B460122E7492046FFF7B8FC4B
:1020C00008B10320F8E6012084F8350000BF0020A5
:1020D00084F8340000BFEFE60220EDE6F8B50446D0
:1020E0000D4616461F4694F83500012873D105B1F8
:1020F0000EB90120F8BD20688069C0F3400008B126
:102100000220F7E700BF94F83400012801D1022033
:10211000F0E7012084F8340000BF122084F8350075
:102120000020A0632068006840F480602168086097
:102130003B460022C7493E392046FFF779FC08B1EB
:102140000320D7E700BF20684069009020688069BD
:10215000009000BF00BF2069B0F5404F12D13B4650
:102160000022BC493E392046FFF762FC08B103203B
:10217000C0E700BF20684069009020688069009037
:1021800000BF00BF1BE03B460022B2494031204661
:10219000FFF74EFC08B10320ACE715F8010B2168EE
:1021A0000861701E86B220684069C0F3800030B1BB
:1021B0002EB115F8010B21680861701E86B2002E41
:1021C000E1DC3B4600224FF482312046FFF730FC31
:1021D00010B103208EE71BE06FF480602168486136
:1021E0002068006820F48060216808603B46012276
:1021F00099492046FFF71CFC08B103207AE701202B
:1022000084F8350000BF002084F8340000BF71E777
:1022100002206FE7F8B504460D4616461F4694F8AF
:102220003500012876D105B10EB90120F8BD20682E
:102230008069C0F3400008B10220F7E700BF94F8BE
:102240003400012801D10220F0E7012084F8340095
:1022500000BF222084F835000020A06320680068B9
:1022600040F48060216808603B46002279493E398D
:102270002046FFF7DDFB08B10320D7E700BF206849
:102280004069009020688069009000BF00BF1AE09C
:102290003B4600226F492046FFF7CAFB08B10320E6
:1022A000C4E72068006905F8010B701E86B220683B
:1022B0004069C0F3800030B12EB12068006905F894
:1022C000010B701E86B2002EE2DC3B460022614903
:1022D00030392046FFF7ACFB08B10320A6E700BF6A
:1022E0002068406900902068006840F00100216883
:1022F000086000BF00BF2068006820F4806021688B
:1023000008603B46012254492046FFF791FB10B17B
:1023100003208BE708E0012084F8350000BF00208F
:1023200084F8340000BF81E702207FE7F8B5044657
:102330000F4616461D4694F8350001284AD106B1CD
:102340000DB90120F8BD20688069C0F3400008B1D4
:102350000220F7E700BF94F83400012801D10220E1
:10236000F0E7012084F8340000BF122084F8350023
:102370000020A063666225856585232239462046B4
:10238000FFF744FC80B1A06B042806D100BF0020F9
:1023900084F8340000BF0120D4E700BF002084F897
:1023A000340000BF0320CDE700BF206840690090E3
:1023B00020688069009000BF00BF00BF002084F843
:1023C000340000BF2068406840F4E0602168486045
:1023D0000020B7E70220B5E7F8B504460F461646D9
:1023E0001D4694F8350001287ED106B10DB90120B3
:1023F000F8BD20688069C0F3400008B10220F7E70B
:1024000000BF94F83400012801D10220F0E7012038
:1024100084F8340000BF222084F835000020A06337
:10242000666225856585232239462046FFF7BDFC77
:10243000A0B1A06B042806D100BF002084F83400AE
:1024400000BF0120D4E700BF002084F8340000BFA3
:102450000320CDE74000010002001000608D01283C
:1024600015D12068006820F480602168086000BFF2
:1024700020684069009020688069009000BF00BF1C
:102480002068006840F400702168086026E0608DD4
:10249000022814D12068006820F480602168086058
:1024A0002068006840F400602168086000BF206870
:1024B0004069009020688069009000BF0EE02068AD
:1024C000006840F480602168086000BF20684069AF
:1024D000009020688069009000BF00BF00BF00200E
:1024E00084F8340000BF00E007E02068406840F452
:1024F000E0602168486000207AE7022078E710B5A4
:10250000034693F83500012830D101B10AB9012002
:1025100010BD18688069C0F3400008B10220F7E7D9
:1025200000BF93F83400012801D10220F0E7012018
:1025300083F8340000BF122083F835000020986330
:1025400059621A855A851868006840F480601C68D2
:10255000206000BF002083F8340000BF1868406886
:1025600040F4E0601C6860600020D1E70220CFE703
:1025700010B5034693F83500012830D101B10AB9EE
:10258000012010BD18688069C0F3400008B1022026
:10259000F7E700BF93F83400012801D10220F0E7EB
:1025A000012083F8340000BF222083F8350000208A
:1025B000986359621A855A851868006840F48060EB
:1025C0001C68206000BF002083F8340000BF18683A
:1025D000406840F4E0601C6860600020D1E70220A1
:1025E000CFE7704770B50546AC6B2068006820F4F3
:1025F00080602168086000206085012084F8350033
:10260000A06B40F01000A0632046FFF7EAFF70BD0A
:10261000704770B50546AC6B23230022F74920466E
:10262000FFF706FA18B1A06B40F02000A063206805
:10263000006840F40070216808602068406820F459
:102640000060216848600020608523230122EC4956
:102650002046FFF7EDF918B1A06B40F02000A06311
:10266000012084F83500A06B18B12046FFF7B9FFB0
:1026700002E02046FFF7CCFF70BDF8B504460F46D8
:1026800015461E4694F83500012857D105B10EB9FC
:102690000120F8BD20688069C0F3400008B1022025
:1026A000F7E700BF94F83400012801D10220F0E7D9
:1026B000012084F8340000BF122084F83500002087
:1026C000A063656226856685CE48E16AC863CE4808
:1026D000E16A8864216801F1100233462946E06A04
:1026E00003F0C2FA232239462046FFF78FFA80B161
:1026F000A06B042806D100BF002084F8340000BF7E
:102700000120C6E700BF002084F8340000BF03208A
:10271000BFE72068406840F400602168486000BF5F
:1027200020684069009020688069009000BF00BF69
:1027300000BF002084F8340000BFAAE70220A8E709
:10274000704770B50546AC6B2068006840F40070B7
:10275000216808602068406820F480502168486043
:102760002068006820F48060216808602068406864
:1027700020F4006021684860002060852323012246
:102780009F492046FFF754F918B1A06B40F0200094
:10279000A063012084F83500A06B18B12046FFF734
:1027A00020FF02E02046FFF7CBFF70BDF8B50446DE
:1027B0000F4616461D4694F83500012866D106B12D
:1027C0000DB90120F8BD20688069C0F3400008B150
:1027D0000220F7E700BF94F83400012801D102205D
:1027E000F0E7012084F8340000BF222084F835008F
:1027F0000020A0636662258565858448216BC863D7
:102800008148216B8864226802F110012B46324610
:10281000206B03F029FA232239462046FFF7C5FA38
:1028200080B1A06B042806D100BF002084F83400DA
:1028300000BF0120C6E700BF002084F8340000BFBD
:102840000320BFE7012D06D12068006820F48060D6
:102850002168086005E02068406840F480502168E5
:1028600048602068406840F400602168486000BF0C
:1028700020684069009020688069009000BF00BF18
:1028800000BF002084F8340000BF9BE7022099E7D6
:10289000704770B50546AC6B232300224FF482319C
:1028A0002046FFF7C5F818B1A06B40F02000A063E8
:1028B0006FF48060216848612068006820F48060BF
:1028C000216808602068406820F400602168486042
:1028D000002060852323012249492046FFF7A8F8FC
:1028E00018B1A06B40F02000A063012084F83500EF
:1028F000A06B18B12046FFF774FE02E02046FFF7F8
:10290000C7FF70BDF8B504460E46154694F835006D
:1029100001287FD106B10DB90120F8BD206880697A
:10292000C0F3400008B10220F7E700BF94F834007C
:10293000012801D10220F0E7012084F8340000BF13
:10294000122084F835000020A06366622585658525
:102950002F48E16AC8632C48E16A8864216801F164
:1029600010022B463146E06A03F07EF92068406889
:1029700040F40060216848602068006840F480608E
:102980002168086042F2107300221C49891E20460B
:10299000FFF74EF808B10320BFE72069B0F5804F7C
:1029A00008D100BF206840690090206880690090CD
:1029B00000BF1CE000BF206840690090206880696B
:1029C000009000BF00BF42F2107300220B49891E25
:1029D0002046FFF72DF808B103209EE700BF2068CE
:1029E0004069009020688069009000BF00BF00BF70
:1029F000002084F8340000BF8FE70BE004000100E2
:102A00000200100013260008E525000843270008EF
:102A100093280008022080E7704738B50546AC6B64
:102A200023230022F9492046FFF702F818B1A06BD2
:102A300040F02000A06300BF20684069009020683B
:102A4000006840F001002168086000BF00BF2068F6
:102A5000006820F48060216808602068406820F4E5
:102A60000060216848600020608523230122E84936
:102A70002046FEF7DDFF18B1A06B40F02000A063F8
:102A8000012084F83500A06B18B12046FFF7A9FD9E
:102A900002E02046FFF7C0FF38BDF8B504460E46F9
:102AA000154694F83500012851D106B10DB9012021
:102AB000F8BD20688069C0F3400008B10220F7E744
:102AC00000BF94F83400012801D10220F0E7012072
:102AD00084F8340000BF222084F835000020A06371
:102AE000666225856585CB48216BC863CA48216B22
:102AF0008864226802F110012B463246206B03F0F5
:102B0000B3F82068406840F400602168486020689D
:102B1000006840F480602168086042F2107300226F
:102B2000BA490E392046FEF783FF08B10320BFE7FC
:102B300000BF20684069009020688069009000BF55
:102B400000BF00BF002084F8340000BFB0E70220BF
:102B5000AEE72DE9F84304460E4615461F46DDF85C
:102B600020802068006840F4807021680860434637
:102B700000224FF001112046FEF75AFF10B103204A
:102B8000BDE8F88306F0FE002168086142469F49CF
:102B90000E392046FEF7BBFF30B1A06B042801D1EF
:102BA0000120EDE70320EBE700BF206840690090BB
:102BB00020688069009000BF00BF4346002293490F
:102BC00070312046FEF734FF08B10320D8E7012F0B
:102BD00003D1E8B22168086110E0C5F3072021683D
:102BE000086143460022894970312046FEF720FFE4
:102BF00008B10320C4E7E8B2216808610020BFE7FC
:102C00002DE9F84F0446894692461F46DDE90B68D8
:102C10000A9D012F01D0102F00D104E04FF4C561AF
:102C20007E4811F02EFE94F83500012877D105B1C9
:102C300016B90120BDE8F88F20688069C0F3400014
:102C400008B10220F6E700BF94F83400012801D152
:102C50000220EFE7012084F8340000BF322084F81E
:102C600035000020A0633B46524649462046CDF839
:102C70000080FFF76EFF80B1A06B042806D100BF73
:102C8000002084F8340000BF0120D3E700BF0020FB
:102C900084F8340000BF0320CCE71BE04346002249
:102CA0005A4970312046FEF7C3FE08B10320C1E740
:102CB00015F8010B21680861701E86B22068406912
:102CC000C0F3800030B12EB115F8010B2168086106
:102CD000701E86B2002EE1DC434600224B49703163
:102CE0002046FEF7A5FE08B10320A3E72068006890
:102CF00040F40070216808604346012244492046A0
:102D0000FEF796FE08B1032094E7012084F8350011
:102D100000BF002084F8340000BF8BE7FFE70220EB
:102D200088E72DE9F84304460E4615461F46DDF8B0
:102D300020802068006840F4806021680860206876
:102D4000006840F4807021680860434600224FF01C
:102D500001112046FEF76CFE10B10320BDE8F88398
:102D600006F0FE0021680861424628490E392046D7
:102D7000FEF7CDFE30B1A06B042801D10120EDE7B4
:102D80000320EBE700BF206840690090206880695D
:102D9000009000BF00BF434600221C49703120460E
:102DA000FEF746FE08B10320D8E7012F03D1E8B2B1
:102DB0002168086110E0C5F30720216808614346D7
:102DC0000022124970312046FEF732FE08B103207E
:102DD000C4E7E8B221680861434600220B4970311C
:102DE0002046FEF725FE08B10320B7E720680068FB
:102DF00040F4807021680860434600224FF00111C2
:102E00002046FEF715FE58B10320A7E71000010089
:102E1000020010001B2A0008E5250008C41B00085A
:102E2000F0B240F00100216808614246FC492046AA
:102E3000FEF76DFE30B1A06B042801D101208DE7B3
:102E400003208BE7002089E72DE9F84F04468946E7
:102E500092461F46DDE90B680A9D012F01D0102F15
:102E600000D104E040F28C61EE4811F00AFD94F8C4
:102E7000350001287CD105B116B90120BDE8F88FD5
:102E800020688069C0F3400008B10220F6E700BF67
:102E900094F83400012801D10220EFE7012084F8E2
:102EA000340000BF422084F835000020A0633B4678
:102EB000524649462046CDF80080FFF732FF80B1E8
:102EC000A06B042806D100BF002084F8340000BFA6
:102ED0000120D3E700BF002084F8340000BF0320A6
:102EE000CCE7012E15D12068006820F480602168AD
:102EF000086000BF206840690090206880690090E9
:102F000000BF00BF2068006840F4007021680860BE
:102F10001FE0022E14D12068006820F48060216830
:102F200008602068006840F400602168086000BF05
:102F300020684069009020688069009000BF08E028
:102F400000BF20684069009020688069009000BF41
:102F500000BF82E0032E65DC012E11D14346002222
:102F6000AF493E312046FEF763FD10B1032085E7EF
:102F70008EE02068006905F8010B701E86B26CE0D7
:102F8000022E1CD143460022A549891C2046FEF78B
:102F90004FFD08B1032071E72068006840F400701D
:102FA000216808602068006905F8010B701E86B270
:102FB0002068006905F8010B701E86B24DE043469B
:102FC00000229749891C2046FEF732FD08B10320F4
:102FD00054E72068006820F4806021680860206859
:102FE000006905F8010B701E86B2434600228C4929
:102FF000891C2046FEF71CFD08B103203EE720682F
:10300000006840F40070216808602068006905F8D5
:10301000010B701E86B22068006905F8010B701E56
:1030200086B21AE0434600227D493E312046FEF733
:10303000FFFC08B1032021E72068006905F8010BB7
:10304000701E86B220684069C0F3800028B12068F5
:10305000006905F8010B701E86B2002E3FF77AAFAB
:103060002068006820F4006021680860434601225F
:103070006D492046FEF7DCFC08B10320FEE6012086
:1030800084F8350000BF002084F8340000BFF5E666
:103090000220F3E62DE9F8430446884691461D4692
:1030A000DDE90876012D01D0102D00D104E040F2B9
:1030B0004C715C4811F0E5FB94F83500012845D1CE
:1030C00007B116B90120BDE8F88320688069C0F314
:1030D000400008B10220F6E700BF94F83400012850
:1030E00001D10220EFE7012084F8340000BF322034
:1030F00084F835000020A06367622685668523205A
:103100002B464A46414600902046FFF722FD80B1FB
:10311000A06B042806D100BF002084F8340000BF53
:103120000120D0E700BF002084F8340000BF032056
:10313000C9E700BF002084F8340000BF2068406861
:1031400040F4E060216848600020BCE70220BAE754
:103150002DE9F8430446884691461D46DDE9087688
:10316000012D01D0102D00D104E040F295712D48C1
:1031700011F087FB94F8350001286FD107B116B91B
:103180000120BDE8F88320688069C0F3400008B1E1
:103190000220F6E700BF94F83400012801D1022094
:1031A000EFE7012084F8340000BF422084F83500A6
:1031B0000020A06367622685668523202B464A4649
:1031C000414600902046FFF7ACFD80B1A06B04287B
:1031D00006D100BF002084F8340000BF0120D0E7F2
:1031E00000BF002084F8340000BF0320C9E7608DD1
:1031F00001281BD12068006820F4806021680860E5
:1032000000BF20684069009020688069009000BF7E
:1032100000BF2068006840F40070216808602DE05D
:1032200002000100C41B000802001000608D02288B
:1032300015D12068006820F480602168086020684B
:10324000006840F400602168086000BF20684069A1
:10325000009020688069009000BF0FE01BE02068AC
:10326000006840F480602168086000BF2068406901
:10327000009020688069009000BF00BF00BF002060
:1032800084F8340000BF2068406840F4E0602168A2
:103290004860002075E7022073E7704770B5054667
:1032A000AC6B23230022FC492046FEF7C1FB18B17A
:1032B000A06B40F02000A0632068006840F400701C
:1032C000216808602068406820F400602168486038
:1032D0000020608523230122F0492046FEF7A8FB49
:1032E00018B1A06B40F02000A063012084F83500E5
:1032F000A06B18B12046FFF774F902E02046FFF7F3
:10330000CCFF70BD2DE9F8430446884691461E4621
:10331000DDE90875012E01D0102E00D104E040F245
:10332000FC71DF4811F0ADFA94F83500012852D154
:1033300007B115B90120BDE8F88320688069C0F3A2
:10334000400008B10220F6E700BF94F834000128DD
:1033500001D10220EFE7012084F8340000BF3220C1
:1033600084F835000020A063676225856585CD4817
:10337000E16AC863CC48E16A8864216801F11002FF
:103380002B463946E06A02F06FFC232033464A465A
:10339000414600902046FFF7DCFB80B1A06B04287B
:1033A00006D100BF002084F8340000BF0120C2E72E
:1033B00000BF002084F8340000BF0320BBE7206872
:1033C000406840F400602168486000BF002084F835
:1033D000340000BFAFE70220ADE7704770B5054687
:1033E000AC6B2068006840F40070216808602068B9
:1033F000406820F48050216848602068006820F40C
:103400008060216808602068406820F400602168BE
:1034100048600020608523230122A0492046FEF752
:1034200007FB18B1A06B40F02000A063012084F8D6
:103430003500A06B18B12046FFF7D3F802E0204614
:10344000FFF7CBFF70BD2DE9F8430446884691464F
:103450001E46DDE90875012E01D0102E00D104E0D2
:1034600040F64A018E4811F00CFA94F83500012814
:103470006AD107B115B90120BDE8F88320688069D9
:10348000C0F3400008B10220F6E700BF94F8340012
:10349000012801D10220EFE7012084F8340000BFA9
:1034A000422084F835000020A06367622585658589
:1034B0007E48216BC8637C48216B8864226802F1D6
:1034C00010012B463A46206B02F0CEFB23203346F8
:1034D0004A46414600902046FFF723FC80B1A06B8E
:1034E000042806D100BF002084F8340000BF01206A
:1034F000C2E700BF002084F8340000BF0320BBE710
:10350000012D06D12068006820F4806021680860E1
:1035100005E02068406840F48050216848602068D9
:10352000406840F400602168486000BF206840693E
:10353000009020688069009000BF00BF00BF00209D
:1035400084F8340000BF97E7022095E72DE9FC5F7F
:1035500004460E4617461D464FF00008C146C246B7
:10356000C3460120019094F83500012877D12068E6
:103570008069C0F3400010B10220BDE8FC9F00BF8D
:1035800094F83400012801D10220F6E7012084F8E4
:10359000340000BF022084F835000020A06300BF83
:1035A0002068006840F48070216808602B46002283
:1035B0004FF001112046FEF73BFA08B10320DCE78B
:1035C00006F0FE002168086100F09FFB804620683D
:1035D0004069C0F3400920684069C0F3802A94F82C
:1035E00035B013E02DB100F090FBA0EB0800A8422D
:1035F00002D9032084F8350020684069C0F34009EF
:1036000020684069C0F3802A94F835B0B9F1000F02
:1036100005D1BAF1000F02D1BBF1030FE2D10120B5
:1036200084F8350020684069C0F3400008B3206882
:10363000006840F400702168086000BF206840699D
:10364000009020688069009000BF00BF2B460122D7
:1036500012492046FEF7ECF910B103208DE737E060
:10366000012084F8350000BF002084F8340000BF3A
:1036700083E72068006840F40070216808606FF4F8
:103680008060216848612B46012204492046FEF7EC
:10369000CFF968B1032070E70400010002001000B8
:1036A000C41B00089D320008E5250008DD33000832
:1036B0000198411C0191B842FFF472AF012084F8D7
:1036C000350000BF002084F8340000BF012054E71B
:1036D000022052E70146488D48B108680069C2B22D
:1036E0004B6A581C48621A70488D401E488500205D
:1036F00070470146488D48B108680069C2B24B6AFC
:10370000581C48621A70488D401E4885002070473A
:103710000146488D40B14A6A501C486210780A68D8
:103720001061488D401E4885002070470146488D35
:1037300040B14A6A501C486210780A681061488D8E
:10374000401E48850020704738B504462068406810
:1037500020F4E0602168486000BF20684069009064
:103760002068006840F001002168086000BF00BFC9
:103770002068006820F4806021680860232301220B
:10378000FA492046FEF754F908B1032038BD01205C
:1037900084F835002046FFF73FF90020F6E708B52A
:1037A000014600BF08684069009008688069009081
:1037B00000BF00BF002008BD10B50446608D03287F
:1037C00010D12068006820F48060216808602068BB
:1037D0000069C1B2626A501C60621170608D401E47
:1037E00060854DE0608D022840D12068006840F47B
:1037F00000702168086020680069C1B2626A501CCC
:1038000060621170608D401E608520680069C1B2E1
:10381000626A501C60621170608D401E6085206875
:10382000406820F440702168486023230122CF497A
:103830002046FEF7FDF808B1032010BD206800689F
:1038400020F400602168086094F83500422806D111
:10385000012084F835002046FFF7BFFD10E001206D
:1038600084F835002046FEF76BFF09E02068006908
:10387000C1B2626A501C60621170608D401E60852A
:103880000020DAE770B504460025658D032D0AD9BE
:1038900020680069C1B2626A501C60621170608D5C
:1038A000401E60853AE0022D01D0032D06D120682C
:1038B000406820F48060216848602FE020684068FC
:1038C00020F4E0602168486020680069C1B2626A43
:1038D000501C60621170608D401E608523230122A0
:1038E000A2492046FEF7A4F808B1032070BD206865
:1038F000006820F400602168086094F835004228D0
:1039000006D1012084F835002046FFF766FD05E06A
:10391000012084F835002046FEF712FF0020E5E77D
:1039200010B50446608D48B1616A481C6062087831
:1039300021680861608D401E608525E02068406830
:1039400020F4E060216848602068006840F400705E
:10395000216808602323012284492046FEF768F885
:1039600008B1032010BD94F83500322806D101209B
:1039700084F835002046FFF790FC05E0012084F82C
:1039800035002046FEF744FE0020EBE701464A6A78
:10399000501C486210780A681061488D401E4885A6
:1039A000488D28B90868406820F480600A68506033
:1039B000002070472DE9F04104460027002600252D
:1039C000A8462068806900F00100002846D02068E1
:1039D0008069C0F3800000B320684069C0F3C0175D
:1039E00020684068C0F3802620684069C0F38005E5
:1039F00020684068C0F3402837B1012E04D11DB9BA
:103A00002046FFF7C3FF8CE0012DFCD1B8F1010F78
:103A1000F9D12046FFF784FF83E020684069C0F3B6
:103A2000801720684068C0F3802620684069C0F392
:103A3000800520684068C0F3402837B1012E04D1CA
:103A40001DB92046FFF71EFF6BE0012D69D1B8F1CB
:103A5000010F66D12046FFF7AFFE62E020684069A3
:103A6000C0F3400720684068C0F3402620684069E2
:103A7000C0F3001520688069C0F380082FB1012EC3
:103A800003D12046FFF78BFE4BE0012D05D1012E1F
:103A900003D12046FFF758FE43E0B8F1010F20D1D3
:103AA00020684069C0F3C01720684068C0F38026D2
:103AB00020684069C0F3800520684068C0F3402852
:103AC00037B1012E04D11DB92046FFF72FFE28E0A3
:103AD000012D26D1B8F1010F23D12046FFF718FEA2
:103AE0001FE020684069C0F3801720684068C0F379
:103AF000802620684069C0F3800520684068C0F3D4
:103B0000402837B1012E04D11DB92046FFF7F1FD41
:103B100007E0012D05D1B8F1010F02D12046FFF7D2
:103B2000D9FDBDE8F08110B504462068406820F456
:103B3000E060216848606FF4806021684861206817
:103B4000006820F48060216808602323012207496F
:103B50002046FDF76DFF08B1032010BD012084F859
:103B600035002046FEF794FE0020F6E70200100024
:103B70002DE9F04104460025002600272068406911
:103B8000C0F3002520684068C0F300264DB1012E27
:103B900007D1A06B40F00100A0636FF48070216832
:103BA000486120684069C0F3402520684068C0F340
:103BB00000264DB1012E07D1A06B40F00200A0639A
:103BC0006FF400702168486120684069C0F3802567
:103BD00020684068C0F30026C5B1012E16D12068C8
:103BE000806900F00105668D94F8357035B92EB9FD
:103BF000122F03D12046FFF796FF07E0A06B40F09D
:103C00000400A0636FF48060216848612068406907
:103C1000C0F3C02520684068C0F300264DB1012ED6
:103C200007D1A06B40F00800A0636FF4006021682A
:103C30004861A06B58B1012084F835002068006805
:103C400020F40060216808602046FEF7CAFCBDE849
:103C5000F081014691F8350070470146886B704746
:103C6000704770B5044607F0F1FC4FF47A71B0FB71
:103C7000F1F5284600F07EF900222146501E00F0A2
:103C8000F0F8002070BD10B55748006840F400708F
:103C9000554908600846006840F48060086008469E
:103CA000006840F480700860032000F0B7F800203E
:103CB000FFF7D7FF11F09CFC002010BD704710B536
:103CC0004FF0FF304949086000200860401E091D80
:103CD000086000200860401E444910390860002038
:103CE0000860401E091D086000200860401E091D74
:103CF000086000200860FFF7E1FF002010BD3C488D
:103D00000068401C3A4908607047394800687047AD
:103D100031B50024FFF7F9FF044600BFFFF7F5FFB8
:103D2000001B00998842F9D338BD4FF0E0200069AC
:103D300020F002004FF0E021086170474FF0E020D2
:103D4000006940F002004FF0E021086170474FF039
:103D50008170704727480068000C7047254800684C
:103D6000C0F30B0070472348406840F00100214930
:103D7000486070471F48406820F001001D494860B6
:103D800070471C48406840F002001A49486070477C
:103D90001848406820F002001649486070471548EE
:103DA000406840F00400134948607047114840687B
:103DB00020F004000F4948607047012090FAA0F1FC
:103DC000B1FA81F10C4A02EB8101C1F8000470479D
:103DD0000020012191FAA1F1B1FA81F1064A02EB2A
:103DE0008101C1F800047047003C024020380240C5
:103DF00000000020002004E00000274210B5002849
:103E000007DA0A07140EDC4A00F00F031B1FD45414
:103E100003E00A07130ED94A135410BD10B5044627
:103E2000072C07D0062C05D0052C03D0042C01D07C
:103E3000032C00D103E0A421D1A010F022FD00BF8B
:103E400004F00701CC4A0C3A10684FF6FF0210400C
:103E5000DB4A024342EA0120C74A0C3A106000BF25
:103E600010BD2DE9F05F80460C4615460027102D49
:103E700000D203E0BC21C2A010F003FD102C00D240
:103E800003E0BD21BEA010F0FCFC00F06EF9074677
:103E9000394622462B4601F00700C0F1070ABAF165
:103EA000040F02D94FF0040A01E0C0F1070AD1461D
:103EB00000F1040ABAF1070F02D24FF0000A01E044
:103EC000A0F1030AD4464FF0010A0AFA09FAAAF14E
:103ED000010A0AEA020A0AFA0CFA4FF0010B0BFA7D
:103EE0000CFBABF1010B0BEA030B4AEA0B06314664
:103EF0004046FFF783FFBDE8F09F10B50446002C55
:103F000000DB03E0D0219EA010F0BBFC00BF04F05A
:103F10001F01012088406109890001F1E021C1F8F9
:103F2000000100BF10BD10B50446002C00DB03E00B
:103F3000E02193A010F0A5FC00BF04F01F010120B8
:103F40008840A049620941F8220000BF10BD00BFAF
:103F5000BFF34F8F88480C38006800F4E060984940
:103F60000843001D84490C390860BFF34F8F00BF20
:103F700000BFFEE770B504462546681EB0F1807F9D
:103F800001D301200FE0681E4FF0E02148610F21AE
:103F90004FF0FF30FFF732FF00204FF0E021886143
:103FA00007200861002070BD10B500F0DEF810BDDC
:103FB0002DE9F04705460C4616461F46072C07D04C
:103FC000062C05D0052C03D0042C01D0032C00D1E5
:103FD00004E040F231116AA010F053FC284600289A
:103FE00008DA654B00F00F0CACF1040C13F80C3040
:103FF0001B1102E0614B1B5C1B111946224602F0AB
:104000000700C0F10708B8F1040F02D94FF0040807
:1040100001E0C0F10708C44600F10408B8F1070F39
:1040200002D24FF0000801E0A0F10308434621FA54
:1040300003F84FF0010909FA0CF9A9F1010908EA9E
:104040000908C6F800804FF0010808FA03F8A8F143
:10405000010808EA0108C7F8008000BFBDE8F08742
:1040600010B50446002C00DB04E04FF4A07144A01E
:1040700010F007FC00BF04F01F01012088405149E7
:104080008031620941F8220000BF10BD10B504461E
:10409000002C00DB04E04FF4A97139A010F0F1FB13
:1040A000204648498031420951F8221000F01F0390
:1040B00001229A40114009B1012100E00021084687
:1040C00010BD10B50446002C00DB04E04FF4B171C4
:1040D0002BA010F0D6FB00BF04F01F010120884088
:1040E0003949620941F8220000BF10BD10B50446ED
:1040F000002C00DB04E040F2731121A010F0C1FBA2
:10410000204631498031420951F8221000F01F0346
:1041100001229A40114009B1012100E00021084626
:1041200010BD10B50446042C00D004B904E04FF4CF
:10413000C27113A010F0A5FB042C08D14FF0E020B1
:10414000006940F004004FF0E021086107E04FF003
:10415000E020006920F004004FF0E021086110BD6C
:10416000704710B5FFF7FCFF10BD03480C3800681E
:10417000C0F302207047000018ED00E000E400E00A
:104180002E2E5C2E2E5C447269766572735C5354DD
:104190004D3332463478785F48414C5F44726976DB
:1041A00065725C5372635C73746D33326634787815
:1041B0005F68616C5F636F727465782E63000000E6
:1041C0000000FA0580E100E080E200E0F0B503467F
:1041D0001446002500221868426A21B942EA0440C8
:1041E0001E68B06219E01868806A02EB1042002570
:1041F00008E0186800F5827050F8250002EB1042C4
:10420000681CC5B2481EA842F3DC42EA044718689D
:1042100000F582704E1E40F826700020F0BD024668
:1042200010684162002070472DE9F04706460C46B1
:104230004FF00009C8460025F748864217D0F748D6
:10424000864214D0F648864211D0F64886420ED0F7
:10425000F54886420BD0F548864208D0F44886429D
:1042600005D0F448864202D0F348864200D103E0EC
:10427000C521F2A010F005FB208880B200B103E058
:10428000C621EEA010F0FDFA606830B36068012826
:1042900023D06068112820D0606802281DD0606893
:1042A00012281AD0F4496068884216D0F349606831
:1042B000884212D0F249606888420ED0F1496068A5
:1042C00088420AD0F0496068884206D0EF496068A9
:1042D000884202D06068032800D103E0C721D7A03C
:1042E00010F0CFFAA06828B1A068012802D0A06819
:1042F000022800D103E0C821D0A010F0C2FA0027A4
:1043000061E1012000FA07F9206800EA0908C845C0
:1043100070D16068022802D0606812286BD12069D1
:10432000002866D02069092863D02069F0B320698D
:10433000E0B32069D0B32069C0B32069012858D008
:104340002069012855D02069022852D0206902280E
:104350004FD0206902284CD02069032849D0206919
:10436000042846D02069042843D02069042840D07E
:10437000206905283DD0206905283AD02069092800
:1043800037D02069062834D02069092831D0206927
:1043900007282ED0206907282BD02069072828D08D
:1043A0002069082825D02069082800E021E020D0D5
:1043B000206908281DD0206909281AD020690928F9
:1043C00017D020690A2814D020690A2811D0206942
:1043D0000B280ED020690C280BD020690C2808D09F
:1043E00020690D2805D020690C2802D020690F28EB
:1043F00002D105E0E2E017E0D92190A010F041FAE7
:10440000F90806F1200050F821507807C10E0F205E
:10441000884085437907C90E206988400543F9081B
:1044200006F1200040F821503568790003208840CB
:104430008543207900F0030079008840054335600A
:104440006068012808D06068022805D060681128DB
:1044500002D06068122823D1E06840B1E0680128EA
:1044600005D0E068022802D0E068032800D103E00C
:10447000EC2172A010F005FAB5687900032088409D
:1044800085437900E06888400543B5607568012080
:10449000B84085432079C0F30010B84005437560EB
:1044A000F56879000320884085437900A06888403A
:1044B0000543F560606800F08050B0F1805F7DD109
:1044C0007348006840F48040714908607148B90839
:1044D00050F82150B807010F0F20884085434E48FF
:1044E000864201D1002028E04C48864201D10120BB
:1044F00023E04B48864201D102201EE04948864213
:1045000001D1032019E04848864201D1042014E07B
:104510004648864201D105200FE04548864201D138
:1045200006200AE04348864201D1072005E04248C0
:10453000864201D1082000E00920B907090F884010
:1045400005435448B90840F821505348056825EA06
:104550000805606800F48030B0F5803F01D145EA7D
:1045600008054D480560001D056825EA08056068D6
:1045700000F40030B0F5003F01D145EA0805464897
:10458000001D0560001D056825EA0805606800F447
:104590008010B0F5801F01D145EA08053E4808307B
:1045A0000560001D056825EA0805606800F4001034
:1045B000B0F5001F01D145EA080500E002E03648E9
:1045C0000C3005607F1C102FFFF49BAEBDE8F08718
:1045D0002DE9F04704460F464FF000080026B1468B
:1045E0000D48844217D00D48844214D00C488442B0
:1045F00011D00C4884420ED00B4884420BD00B489B
:10460000844208D00A48844205D00A48844202D035
:104610000948844242D147E00000024000040240C1
:1046200000080240000C024000100240001402404A
:1046300000180240001C0240002002402E2E5C2E7A
:104640002E5C447269766572735C53544D33324606
:104650003478785F48414C5F4472697665725C5388
:1046600072635C73746D3332663478785F68616C42
:104670005F6770696F2E6300000011100000211049
:104680000000311000001210000022100000321053
:104690004438024008380140003C01404FF4A17109
:1046A000AFF2680010F0EDF800254FE0012000FAAD
:1046B00005F807EA0806464547D120686A00032145
:1046C000914088432060E90804F1200050F821005F
:1046D0006907CA0E0F2191408843EA0804F12001BE
:1046E00041F82200A0686A00032191408843A0603D
:1046F00060680121A94088436060E0686A00032186
:1047000091408843E060A807010F0F2000FA01F9EB
:104710004948A90850F8211021EA0901AA0840F8DF
:10472000221046480068B04344490860081D0068EC
:10473000B043091D0860081D0068B043091D0860EA
:10474000081D0068B043091D08606D1C102DADD315
:10475000BDE8F08770B506460C46A0B200B105E092
:1047600040F28B11AFF22C1010F08BF83069204022
:1047700008B1012500E00025284670BD70B5064649
:104780000C461546A0B200B105E04FF4D671AFF269
:10479000541010F076F80DB1012D00D105E040F273
:1047A000AD11AFF2681010F06CF80DB1B46101E01A
:1047B0002004B06170BD70B504460D46A8B200B1CA
:1047C00005E040F2C311AFF28C1010F05AF86069A6
:1047D0006840606170BD38B504460D464FF48030C6
:1047E0000090A8B200B105E04FF4EC71AFF2B41044
:1047F00010F047F80098284300900098E061E561C8
:104800000098E061E0690090E06900F4803008B150
:10481000002038BD0120FCE7704710B5044607486A
:1048200014300068204028B1044814300460204649
:10483000FFF7F2FF10BD000008380140003C0140C6
:10484000704710B504460CB9012010BD3C492068E2
:10485000884200D103E079213AA010F012F8607983
:1048600010B9204610F0BAFC02206071012060717E
:104870000020EAE7704710B504460CB9012010BDCE
:104880002F492068884200D103E09A212DA00FF023
:10489000F8FF02206071204610F0ABFC0020607130
:1048A00000BF207100BF00BFE9E730B503460C46EA
:1048B000002100BF1879012801D1022030BD01205C
:1048C000187100BF02205871002104E054F8210043
:1048D0001D682860491C9142F8D30120587100BF1F
:1048E0000020187100BF18680068E7E730B503467C
:1048F0000C46002100BF1879012801D1022030BDEB
:104900000120187100BF022058711868806840F0BB
:1049100001001D68A860002104E054F821001D6812
:104920002860491C9142F8D30120587100BF002033
:10493000187100BF18680068E1E7014648797047C0
:10494000003002402E2E5C2E2E5C44726976657219
:10495000735C53544D3332463478785F48414C5F32
:104960004472697665725C5372635C73746D333242
:10497000663478785F68616C5F6372632E630000F1
:1049800070B5044600250CB9012070BDF9492068B6
:10499000884249D0F74918312068884244D0F54907
:1049A0003031206888423FD0F2494831206888423F
:1049B0003AD0F04960312068884235D0ED497831ED
:1049C0002068884230D0EB499031206888422BD053
:1049D000E849A8312068884226D0E7492068884203
:1049E00022D0E5491831206888421DD0E249303193
:1049F0002068884218D0E04948312068884213D0A6
:104A0000DD496031206888420ED0DB49783120686A
:104A1000884209D0D84990312068884204D0D649CC
:104A2000A8312068884200D103E0BF21D3A00FF055
:104A300028FF6068D8B16068B0F1007F17D0606867
:104A4000B0F1806F13D06068B0F1C06F0FD06068B4
:104A5000B0F1006F0BD06068B0F1206F07D06068D4
:104A6000B0F1406F03D06068B0F1606F00D103E037
:104A7000C021C2A00FF005FFA06828B1A06840289F
:104A800002D0A068802800D103E0C121BBA00FF0B4
:104A9000F8FEE068B0F5007F01D0E06800B903E0FF
:104AA000C221B6A00FF0EDFE2069B0F5806F01D0F5
:104AB000206900B903E0C321B0A00FF0E2FE6069F5
:104AC00038B16069B0F5006F03D06069B0F5805F00
:104AD00000D103E0C421A9A00FF0D3FEA06938B132
:104AE000A069B0F5005F03D0A069B0F5804F00D198
:104AF00003E0C521A1A00FF0C4FEE06930B1E06978
:104B0000B0F5807F02D0E069202800D103E0C62103
:104B10009AA00FF0B6FE206A58B1206AB0F5803F27
:104B200007D0206AB0F5003F03D0206AB0F5403FBF
:104B300000D103E0C72191A00FF0A3FE606A10B17D
:104B4000606A042800D103E0C8218CA00FF099FE10
:104B5000606A002835D0A06A40B1A06A012805D05B
:104B6000A06A022802D0A06A032800D103E0CD2168
:104B700082A00FF086FEE06A58B1E06AB0F5000F3F
:104B800007D0E06AB0F1807F03D0E06AB0F1C07F67
:104B900000D103E0CE2179A00FF073FE206B58B155
:104BA000206BB0F5001F07D0206BB0F5800F03D04D
:104BB000206BB0F5C00F00D103E0CF216FA00FF044
:104BC00060FE022084F83500206805687A480540B8
:104BD000D4E901010843E168084321690843616998
:104BE0000843A1690843E1690843216A0843054372
:104BF000606A042803D1D4E90B0108430543206807
:104C000005602068456925F00705606A0543606A0C
:104C1000042801D1A06A0543206845610020E064B2
:104C2000012084F835000020AFE6014609B90120D3
:104C3000704791F83500022801D10120F8E7086893
:104C4000006820F001000A68106000200A68106007
:104C50000A6850600A6890600A68D0600A6810614B
:104C600021200A685061444A4832086890425BD962
:104C7000404A0868904201D1504851E03E4A0868D5
:104C8000904201D14D484BE03A4A60320868904268
:104C900001D14A4844E0384A60320868904201D164
:104CA00046483DE0334A18320868904201D18015E9
:104CB00036E0314A18320868904201D180152FE061
:104CC0002C4A78320868904201D1801528E02A4A9F
:104CD00078320868904201D1801521E0254A3032AF
:104CE0000868904202D14FF4802019E0224A303205
:104CF0000868904202D14FF4802011E01D4A9032A2
:104D00000868904202D14FF4802009E01A4A90329C
:104D10000868904202D14FF4802001E04FF080708B
:104D2000154A121F106041E1124AA83208689042E9
:104D300071D9104A0868904201D1204876E00E4AA5
:104D40000868904201D11D4870E00A4A6032086844
:104D5000904201D1194869E0074A603208689042E0
:104D600001D1164862E0034A18320868904227D100
:104D700080155BE010600240106402402E2E5C2E15
:104D80002E5C447269766572735C53544D333246BF
:104D90003478785F48414C5F4472697665725C5341
:104DA00072635C73746D3332663478785F68616CFB
:104DB0005F646D612E6300003F8010F0040080008E
:104DC000F94A0868904201D180152FE0F74A086837
:104DD000904201D1801529E0F34A60320868904280
:104DE00001D1801522E0F14A483A0868904202D188
:104DF0004FF480201AE0EC4A18320868904202D141
:104E00004FF4802012E0E94A18320868904203D13A
:104E10004FF480200AE00DE0E34A783208689042BF
:104E200002D14FF4802001E04FF08070DE4A203A3A
:104E30001060BBE0DD4A303A086890425BD9DB4A3B
:104E4000783A0868904201D1D94850E0D64A183AD9
:104E50000868904201D1D64849E0D44A183A086817
:104E6000904201D1D24842E0CF4A4832086890428D
:104E700001D1CF483BE0CD4A603A0868904201D169
:104E8000801534E0C84A0868904201D180152EE0B0
:104E9000C64A0868904201D1801528E0C24A6032B3
:104EA0000868904201D1801521E0C04A483A08685C
:104EB000904202D14FF4802019E0BB4A18320868B2
:104EC000904202D14FF4802011E0B84A18320868AD
:104ED000904202D14FF4802009E0B34A783208684A
:104EE000904202D14FF4802001E04FF08070AF4A31
:104EF000883AD0605AE0AD4A783A0868904201D1C9
:104F0000AB4850E0A84A183A0868904201D1A84836
:104F100049E0A64A183A0868904201D1A44842E004
:104F2000A14A48320868904201D1A1483BE09F4A1B
:104F3000603A0868904201D1801534E09A4A0868C6
:104F4000904201D180152EE0984A0868904201D124
:104F5000801528E0944A60320868904201D180159B
:104F600021E0924A483A0868904202D14FF48020EA
:104F700019E08D4A18320868904202D14FF480201F
:104F800011E08A4A18320868904202D14FF480201A
:104F900009E0854A78320868904202D14FF48020B7
:104FA00001E04FF08070814A883A90607E4A30324A
:104FB000086890425BD97D4A783A0868904201D1EE
:104FC000202050E0784A183A0868904201D1202009
:104FD00049E0764A183A0868904201D1202042E020
:104FE000714A48320868904201D120203BE06F4A64
:104FF000603A0868904201D1C01434E06A4A0868F7
:10500000904201D1C0142EE0684A0868904201D154
:10501000C01428E0644A60320868904201D1C0148C
:1050200021E0624A483A0868904202D14FF40010E9
:1050300019E05D4A18320868904202D14FF400101E
:1050400011E05A4A18320868904202D14FF4001019
:1050500009E0554A78320868904202D14FF40010B6
:1050600001E04FF00060504A1C3A106021E14F4AC5
:105070003032086890425BD94C4A783A08689042CE
:1050800001D1202050E0484A183A0868904201D1E6
:10509000202049E0454A183A0868904201D1202072
:1050A00042E0414A48320868904201D120203BE06A
:1050B0003E4A603A0868904201D1C01434E03A4A4E
:1050C0000868904201D1C0142EE0384A0868904226
:1050D00001D1C01428E0344A60320868904201D1FE
:1050E000C01421E0314A483A0868904202D14FF496
:1050F000001019E02C4A18320868904202D14FF48F
:10510000001011E0294A18320868904202D14FF489
:10511000001009E0244A78320868904202D14FF426
:10512000001001E04FF000601F4A203A1060C0E01C
:105130001E4A303A0868904260D91C4A783A08689A
:10514000904201D1202055E0174A183A0868904251
:1051500001D120204EE0154A183A0868904201D14A
:10516000202047E0104A48320868904201D12020B0
:1051700040E00E4A603A0868904201D1C01439E01C
:10518000094A0868904201D1C01433E0074A086810
:10519000904201D1C0142DE0034A60320868904269
:1051A00008D1C01426E00000286402408860024054
:1051B00004008000F74A0868904202D14FF40010C2
:1051C00018E0F54A0868904202D14FF4001011E04F
:1051D000F04A60320868904202D14FF4001009E0B2
:1051E000ED4A60320868904202D14FF4001001E0AD
:1051F0004FF00060E74A403AD0605AE0E54A303A62
:105200000868904201D1202050E0E34A303A086813
:10521000904201D1202049E0DE4A303208689042B5
:1052200001D1202042E0DC4A30320868904201D1AE
:1052300020203BE0D74A183A0868904201D1C014B8
:1052400034E0D54A183A0868904201D1C0142DE0E4
:10525000D04A48320868904201D1C01426E0CE4AB4
:1052600048320868904201D1C0141FE0C94A08685A
:10527000904202D14FF4001018E0C74A08689042EB
:1052800002D14FF4001011E0C24A60320868904227
:1052900002D14FF4001009E0BF4A60320868904222
:1052A00002D14FF4001001E04FF00060B94A403ADB
:1052B0009060B94A1832086890425BD9B54A303AD2
:1052C0000868904201D1082050E0B34A303A08689B
:1052D000904201D1082049E0AE4A3032086890423D
:1052E00001D1082042E0AC4A30320868904201D136
:1052F00008203BE0A74A183A0868904201D14015BF
:1053000034E0A54A183A0868904201D140152DE0D2
:10531000A04A48320868904201D1401526E09E4AD2
:1053200048320868904201D140151FE0994A086848
:10533000904202D14FF4002018E0974A086890424A
:1053400002D14FF4002011E0924A60320868904286
:1053500002D14FF4002009E08F4A60320868904281
:1053600002D14FF4002001E04FF000708A4A343A35
:1053700010601EE1874A7832086890425BD9854AFE
:10538000303A0868904201D1082050E0824A303A11
:105390000868904201D1082049E07E4A303208680E
:1053A000904201D1082042E07B4A303208689042A6
:1053B00001D108203BE0774A183A0868904201D1B1
:1053C000401534E0744A183A0868904201D14015FB
:1053D0002DE0704A48320868904201D1401526E01D
:1053E0006D4A48320868904201D140151FE0694A71
:1053F0000868904202D14FF4002018E0664A08681D
:10540000904202D14FF4002011E0624A60320868F5
:10541000904202D14FF4002009E05F4A60320868F0
:10542000904202D14FF4002001E04FF000705A4A40
:10543000383A1060BDE0574A1832086890425BD98C
:10544000544A303A0868904201D1082050E0524A4C
:10545000303A0868904201D1082049E04D4A303284
:105460000868904201D1082042E04B4A3032086877
:10547000904201D108203BE0464A183A0868904221
:1054800001D1401534E0444A183A0868904201D1ED
:1054900040152DE03F4A48320868904201D140153E
:1054A00026E03D4A48320868904201D140151FE08D
:1054B000384A0868904202D14FF4002018E0364A7A
:1054C0000868904202D14FF4002011E0314A603266
:1054D0000868904202D14FF4002009E02E4A603261
:1054E0000868904202D14FF4002001E04FF00070B4
:1054F000284A403AD0605CE0264A303A0868904238
:1055000001D1082053E0244A303A0868904201D182
:1055100008204CE01F4A30320868904201D1082030
:1055200045E01D4A30320868904201D108203EE033
:10553000184A183A0868904201D1401537E0164AD7
:10554000183A0868904201D1401530E0114A4832BB
:105550000868904201D1401529E00F4A4832086896
:10556000904201D1401522E00A4A0868904202D1D7
:105570004FF400201BE0084A0868904202D14FF423
:10558000002014E0034A60320868904206D14FF4CC
:1055900000200CE04060024040640240FC4A086881
:1055A000904202D14FF4002001E04FF00070F94A20
:1055B0009060F74A483A086890425CD9F54A103240
:1055C0000868904201D1F44851E0F14A903A0868E5
:1055D000904201D1F0484AE0EE4A703208689042A9
:1055E00001D1ED4843E0EA4A303A0868904201D1DF
:1055F000E9483CE0E74A28320868904201D140205F
:1056000035E0E34A783A0868904201D140202EE024
:10561000E04A88320868904201D1402027E0DC4A05
:10562000183A0868904201D1402020E0D94A40321F
:105630000868904202D14FF4803018E0D44A603AB2
:105640000868904202D14FF4803010E0D14AA03275
:105650000868904202D14FF4803008E0CC4A0868D4
:10566000904202D14FF4803001E04FF48000C84AEC
:10567000943A10601DE1C74AB832086890425CD97C
:10568000C44A10320868904201D1C34851E0C04A70
:10569000903A0868904201D1BF484AE0BD4A703252
:1056A0000868904201D1BC4843E0B94A303A0868E2
:1056B000904201D1B8483CE0B64A2832086890428E
:1056C00001D1402035E0B24A783A0868904201D1D1
:1056D00040202EE0AF4A88320868904201D1402035
:1056E00027E0AB4A183A0868904201D1402020E0F8
:1056F000A84A40320868904202D14FF4803018E046
:10570000A34A603A0868904202D14FF4803010E01A
:10571000A04AA0320868904202D14FF4803008E0DD
:105720009B4A0868904202D14FF4803001E04FF468
:105730008000974A983A1060BBE0964A5832086851
:1057400090425BD9934A10320868904201D1924846
:1057500051E08F4A903A0868904201D18E484AE061
:105760008C4A70320868904201D18B4843E0884AE5
:10577000303A0868904201D187483CE0854A283297
:105780000868904201D1402035E0814A783A0868A3
:10579000904201D140202EE07E4A88320868904233
:1057A00001D1402027E07A4A183A0868904201D196
:1057B000402020E0774A40320868904202D14FF4FE
:1057C000803018E0724A603A0868904202D14FF483
:1057D000803010E06F4AA0320868904202D14FF446
:1057E000803008E06A4A0868904202D14FF4803065
:1057F00001E04FF48000674AD0605AE0654A1032F9
:105800000868904201D1644851E0614A903A0868C2
:10581000904201D160484AE05E4A70320868904286
:1058200001D15D4843E05A4A303A0868904201D1BC
:1058300059483CE0574A28320868904201D140203C
:1058400035E0534A783A0868904201D140202EE072
:10585000504A88320868904201D1402027E04C4AE3
:10586000183A0868904201D1402020E0494A40326D
:105870000868904202D14FF4803018E0444A603A00
:105880000868904202D14FF4803010E0414AA032C3
:105890000868904202D14FF4803008E03C4A086822
:1058A000904202D14FF4803001E04FF48000394A39
:1058B0009060374A483A086890425CD9354A1032BD
:1058C0000868904201D1102051E0314A903A0868AE
:1058D000904201D110204AE02E4A7032086890426E
:1058E00001D1102043E02A4A303A0868904201D1A1
:1058F00010203CE0274A28320868904201D1001568
:1059000035E0234A783A0868904201D100152EE02C
:10591000204A88320868904201D1001527E01C4ACD
:10592000183A0868904201D1001520E0194A403227
:105930000868904202D14FF4801018E0144A603A8F
:105940000868904202D14FF4801010E0114AA03252
:105950000868904202D14FF4801008E00C4A0868B1
:10596000904202D14FF4801001E04FF08060084A6D
:10597000943A106023E1074AB8320868904262D92D
:10598000044A10320868904208D1102057E0000005
:10599000A06402400060024001008000FB4A0868E9
:1059A000904201D110204AE0F94A0868904201D1A2
:1059B000102044E0F54A60320868904201D110207E
:1059C0003DE0F34A483A0868904201D1001536E0BC
:1059D000EE4A18320868904201D100152FE0EC4AD7
:1059E00018320868904201D1001528E0E74A783261
:1059F0000868904201D1001521E0E54A303A086874
:105A0000904202D14FF4801019E0E04A3032086829
:105A1000904202D14FF4801011E0DD4A3032086824
:105A2000904202D14FF4801009E0D84A90320868C1
:105A3000904202D14FF4801001E04FF08060D34AD1
:105A4000083A1060BBE0D24A183A086890425BD925
:105A5000CF4A603A0868904201D1102050E0CB4A0A
:105A60000868904201D110204AE0C94A0868904273
:105A700001D1102044E0C54A60320868904201D14B
:105A800010203DE0C24A483A0868904201D1001512
:105A900036E0BE4A18320868904201D100152FE066
:105AA000BB4A18320868904201D1001528E0B74A75
:105AB00078320868904201D1001521E0B44A303AAA
:105AC0000868904202D14FF4801019E0AF4A30329A
:105AD0000868904202D14FF4801011E0AC4A303295
