:020000040800F2
:10000000FFFF0120B5FE000801FF000801FF000806
:1000100001FF000801FF000801FF000800000000C8
:100020000000000000000000000000006DAF0008AC
:1000300001FF0008000000001DB00008D1D6000834
:1000400001FF000801FF000801FF000801FF000890
:1000500001FF000801FF000801FF000801FF000880
:1000600001FF000801FF000801FF000801FF000870
:1000700001FF000801FF0008C5D6000801FF0008C5
:10008000FDD6000801FF000801FF000801FF00087D
:1000900001FF000801FF000801FF000801FF000840
:1000A00001FF000801FF000801FF000801FF000830
:1000B00001FF000801FF000801FF000801FF000820
:1000C00001FF000801FF000801FF000801FF000810
:1000D00009D7000801FF000801FF000801FF000820
:1000E00001FF000801FF000801FF000801FF0008F0
:1000F00001FF000801FF000801FF000801FF0008E0
:1001000001FF000801FF000801FF0008E7D6000812
:1001100001FF000801FF000801FF000801FF0008BF
:1001200001FF000801FF000801FF000801FF0008AF
:1001300001FF000801FF000801FF000801FF00089F
:1001400001FF000801FF000801FF0008F1D60008C8
:1001500001FF000801FF000801FF000801FF00087F
:1001600001FF000801FF000801FF000801FF00086F
:1001700001FF000801FF000801FF00080000000067
:0801800001FF000801FF000867
:1001880000207047642938B506D8C1EB01216423E3
:1001980091FBF3F4E4B20CE0E62909D9C5B228468C
:1001A80020217D2200F016FB284621217D220BE02C
:1001B80064241934E4B2C5B220212246284600F04E
:1001C80009FB28462121224600F004FB002038BD07
:1001D800F8B5C4B20D460646174600F0CFFA2046D9
:1001E8000221012200F0F6FA681E2A4B032809D8DA
:1001F800DFE800F002040608FA2204E0AF2202E079
:10020800AA2200E005221A701A780421204600F07C
:10021800E1FA05218122204600F0DCFA04220621B9
:10022800204600F0D7FA30463946FFF7ABFF022DDB
:1002380006460ED00F210622204600F0CBFA2046B3
:100248002421002200F0C6FA20462521002200F0D1
:10025800C1FA0A210022204600F0BCFA20460E21ED
:10026800042200F0B7FA20462721002200F0B2FA53
:1002780020461F210F2200F0ADFA20461A210A223B
:1002880000F0A8FA20461B210A2200F0A3FA304603
:10029800F8BD00BF1005002010B5044600F06EFA46
:1002A800E0B2012100F0B4FA10BD013910B5C0B2B6
:1002B800104C032915D8DFE801F002080E140421B8
:1002C800FA2200F087FAFA2310E00421AF2200F0A6
:1002D80081FAAF230AE00421AA2200F07BFAAA23BC
:1002E80004E00421052200F075FA0523237000209C
:1002F80010BD00BF1005002010B5C4B20421FF22B4
:10030800204600F067FA20460221012200F062FA36
:10031800002010BD012908B503D1C0B20421FF2275
:1003280003E0044B1A78C0B2042100F053FA00200D
:1003380008BD00BF1005002073B5002421460646FD
:100348000194FFF7E7FF0194054602E0019B0133A2
:100358000193019BFE2BF9D9064BF4B21A780421BC
:10036800204600F037FA204602219E2200F032FA99
:1003780028467CBD1005002070B50A4D2B78012B4E
:1003880006460BD10021FFF7C5FF022104469E2235
:10039800F0B200F01FFA00232B7000E00024204682
:1003A80070BD00BF0003002010B5C4B20421FF22B5
:1003B800204600F00FFA20469F22022100F00AFA98
:1003C800024B01221A70002010BD00BF000300205C
:1003D80070B5234D86B0284604F08AFD06460028ED
:1003E8003BD1204C204A236B6A6043F0020323630D
:1003F8003323EB604FF480432B611C4B1C482B606C
:100408004FF41073019312230293022301A904935A
:1004180004230593AE60039602F0FAFC236C43F4C0
:1004280000132364236A43F400132362236A23F42A
:1004380000132362314632461F2000F0F5FD1F20CD
:1004480000F036FE31462020324600F0EDFD202037
:1004580000F02EFE284603F02AF906B070BD00BF52
:100468006C05002000380240A086010000540040BE
:100478000004024070B51B4C86B0204608F07CFB97
:10048800034600282BD1184A184D516C256041F4B9
:1004980080515164166BA36046F0010616636361D0
:1004A8002361A362E360236263624FF482731822BC
:1004B8006360E023E2610193072201230C48E262B2
:1004C80002254FF40072049301A90523A261029545
:1004D8000395059302F09CFC204607F057FA06B0F6
:1004E80070BD00BF140500200038024000300140F4
:1004F8000000024010B50D4B86B01B688DF80F0048
:10050800009300240A488DF817400DF10F010DF1F2
:100518001702012307F0BEFB20B1054807F0EBFAEC
:10052800FFF7A8FF9DF8170006B010BD4003002094
:10053800140500204FF00220704770B5134B86B0A9
:10054800044600B901E0012804D11A6B42F0080200
:100558001A6303E01A6B42F008021A630C4B0D4E43
:1005680033F8145056F824000195012301A9029389
:1005780003930223049302F04BFC56F82400294607
:10058800002202F057FE06B070BD00BF00380240DE
:10059800D800010830030020044A034652F820001E
:1005A800034A32F81310012202F044BE300300203F
:1005B800D8000108044A034652F82000034A32F8DA
:1005C8001310002202F036BE30030020D8000108C4
:1005D800044A034652F82000034A32F8131002F086
:1005E80043BE00BF30030020D800010810B5174AE9
:1005F800146B44F0010486B00B46146361B9144AC5
:10060800029152F8200003930122022301A90192CA
:10061800049302F0FDFB16E0012914D10C4A019164
:10062800022304930B4B52F820000293002401A9E3
:10063800039402F0EDFB06200F21224600F0F4FCA3
:10064800062000F035FD06B010BD00BF003802409E
:10065800440300200000111008B5034B012153F892
:10066800200002F0D5FD08BD4403002070B50D4BF5
:100678000D4E1A6B86B042F010021A630124002353
:100688000825304601A9039301950294049402F0C9
:10069800BFFB30462946224602F0CCFDFFF7EAFEB2
:1006A80006B070BD003802400010024030B50D4A57
:1006B8000D48156B45F0100587B015630B4A0223EA
:1006C800002401A9019302920493039402F0A0FB71
:1006D80007200F21224600F0A7FC072000F0E8FCC5
:1006E80007B030BD00380240001002400000111071
:1006F800012A70B50D46144688BF41F040050646EC
:10070800082100220A4802F095FD2846FFF7F2FE6C
:1007180005E016F8010BFFF7EDFE013CA4B2002C32
:10072800F7D1034808210122BDE8704002F082BDDC
:1007380000100240012A70B58CBF41F0C00641F09C
:10074800800614460546082100220B4802F072FD77
:100758003046FFF7CFFE05E0FFF7CCFE013C05F879
:10076800010BA4B20020002CF6D103480821012275
:10077800BDE8704002F05EBD00100240F0B5134BBA
:10078800134D1A6B87B042F008021A631024022333
:10079800284601A90126002704930194029603978D
:1007A80002F036FBFFF714FE21463A46284602F0CF
:1007B80041FD052000F0A4FB28462146324602F000
:1007C80039FD052000F09CFB07B0F0BD0038024061
:1007D800000C024030B587B006AB054603F8012D82
:1007E800094A0A481468009301230A4601930294AF
:1007F800294603F0F9FC20B1044803F026F8FFF776
:10080800E7FD07B030BD00BF480300206C0500209D
:1008180030B587B006AB002203F8012D0A4A1468E8
:100828000093054601230A46019302940748294686
:1008380003F05AFD20B1054803F007F8FFF7C8FD9B
:100848009DF8170007B030BD480300206C05002054
:10085800F0B53C4F3C4DF969686121F48061002393
:100868004FF400722F6087B0F9612846EB61AB61E5
:10087800EB602A616A60AB6005F084F806460028E0
:100888005AD1324C3248236C43F400432364236B1F
:1008980043F004032363226B022342F00102226324
:1008A80001A94FF4A05202930493062301920593E1
:1008B800039602F0ADFA10232648019301A902F02D
:1008C800A7FA236B224843F00403236301A980237A
:1008D800019302F09DFA226B2B6842F40012BB428E
:1008E800226321D11C4C4023A3604FF48063236111
:1008F8004FF4006363614FF40053A3614FF4003376
:100908002362042363620323A362144B66602046B8
:10091800E660E661E662266323606C63A56300F027
:1009280071FE204600F056FD2F200521002200F020
:100938007BFB2F2000F0BCFB034804F0E0FA07B073
:10094800F0BD00BF003C0040CCF70020003802405A
:100958000008024000000240A8050020B8600240DC
:100968000A4B1B6870B506460D469B6894203146B5
:10097800AAB29847044638B93146C5F34F0204482D
:1009880004F07DFC204670BD012070BDF8050020F4
:10099800CCF7002003460348C1F34F02194604F080
:1009A8006EBC00BFCCF70020074B1B6810B5942025
:1009B800DB689847044620B9044804F00FFD204638
:1009C80010BD012010BD00BFF8050020CCF70020A5
:1009D800074B1B6810B594201B699847044620B93B
:1009E800044804F049FD204610BD012010BD00BF99
:1009F800F8050020CCF7002038B505460C4804F06F
:100A080091FD0C4B1B6894205B6929469847044666
:100A180050B9012D0AD1284600F072FA0648102173
:100A2800224602F007FC01E0012038BD204638BD0F
:100A3800CCF70020F8050020000C024008B5054B53
:100A48001B680146DB6994209847003018BF0120D5
:100A580008BD00BFF805002008B5054B1B68014616
:100A68001B6A94209847003018BF012008BD00BFBA
:100A7800F805002008B5054B1B6801465B6A942001
:100A88009847003018BF012008BD00BFF8050020B6
:100A980030B5174A85B005460023FF2452F82300D5
:100AA800D9B20133A84208BF0C46082BF6D16846D4
:100AB80006F036FEFF2C4FF001030AD00D4A0093D2
:100AC80052F824100C4A019152F8242068460292E8
:100AD80006E000934FF48173019303236846029361
:100AE80006F05CFD2846FFF7B3FE05B030BD00BF39
:100AF800E000010800010108200101082DE9F0418A
:100B08000F4D8046104614460F46FFF7C1FF94204C
:100B18006B68984700F0F800E0280DD1094B2E6863
:100B28001D6041463A4623469420B0472046FFF7C9
:100B38008FFE0020BDE8F0810120BDE8F08100BFF4
:100B480004030020F8050020704708B50268034B2D
:100B58009A4201D10DF0D6F808BD00BF003C004014
:100B6800704708B50268034B9A4201D10DF0C2F8EC
:100B780008BD00BF003C004070472DE9F04F494CCC
:100B8800494B226B494F4A4D410807EE901A42F4EF
:100B980080522263474AF8EEE77A06469A6018467A
:100BA800012287B04FF00208C3ED017A1E809A81B6
:100BB800A3F80E800DF0F4F9FA692F60002322F4EF
:100BC8008062FA61EB61EB602B614FF44073760051
:100BD8006B604FF00809202328466E61C5F818900D
:100BE800AB6004F0CFFE0646002854D1236C32488F
:100BF80043F480432364236B43EA08032363236B92
:100C080043F0040323634FF0050B01A94FF4806AF6
:100C1800CDF808800396CDF81080CDF804A0CDF863
:100C280014B002F0F5F82548CDF8049001A9CDF8E4
:100C380014B002F0EDF8226B2B6842F40012BB42AC
:100C4800226320D11E4C4FF4006363614FF40053BC
:100C5800A3614FF48073E3614FF4003323620323ED
:100C6800A362184B66602046A660E660C4F810A030
:100C78006662E66226632360AC63A56300F0C2FC8B
:100C8800204600F0A7FB0E200621002200F0CCF938
:100C98000E2000F00DFA064804F031F9002007B0E4
:100CA800BDE8F08F0038024098F700200038004077
:100CB80010F8002000002041000402400008024013
:100CC800FC0500205860024008B50346C1F34F02F6
:100CD8000248194604F024FB002008BD10F8002043
:100CE80008B5024804F01EFC002008BD10F80020DA
:100CF80008B5024804F072FB002008BD10F8002077
:100D080008B5024804F0B8FB002008BD10F8002020
:100D1800014B1880002070474C03002010B50023B9
:100D28000C46C25A110A41EA0222C2520233B3F5F2
:100D3800C07FF6D1074A084B1288214692B20DF0BF
:100D4800D1F90023E15AE2180433C02B5180F9D1BC
:100D5800002010BD4C03002098F70020704708B50C
:100D68000CF0BEFF08BD704708B50CF0AFFF08BD1A
:100D780070470368064A934210B5044601D1FFF74D
:100D8800FBFE2268034B9A4201D1FFF7F1FF10BD29
:100D9800003C0040003800400F4A104BD2F8881041
:100DA80041F47001C2F888101868002140F0010071
:100DB80018609960186820F0847020F480301860FA
:100DC80007485860186820F480201860D9604FF0F0
:100DD80000639360704700BF00ED00E000380240F8
:100DE80010300024184B194A996801F00C010429A5
:100DF80003D0082903D0164B19E0164B17E05968A1
:100E08005A6811F4800F596814BF124B104B02F046
:100E18003F02B3FBF2F30C4A5268C2F30142C1F33A
:100E28008811013252004B43B3FBF2F3074A1360B7
:100E3800054A064B916808481A68C1F30311415CDA
:100E480022FA01F21A60704700380240600300205D
:100E58000024F40000127A004E0300207047704707
:100E6800094B10B54FF0FF3200241A621C625A6217
:100E78005C621A611C615A615C619A619C61FFF74E
:100E8800EEFF204610BD00BF0038024010B50446F2
:100E980006F094FA4FF47A73B0FBF3F000F044F9DB
:100EA8004FF0FF302146002200F0BEF8002010BDB0
:100EB80008B50B4B1A6842F400721A601A6842F4BB
:100EC80080621A601A6842F480721A60032000F087
:100ED8008FF80020FFF7DAFF0CF0E4FB002008BDD4
:100EE800003C0240024B1A6801321A60704700BF8A
:100EF8004C060020014B1868704700BF4C060020C4
:100F080013B50190FFF7F6FF0446FFF7F3FF019BC7
:100F1800001B9842F9D31CBD024B1A6822F002024A
:100F28001A60704710E000E0024B1A6842F00202B3
:100F38001A60704710E000E04FF081707047024B74
:100F48001868000C704700BF002004E0024B1868C6
:100F58000005000D704700BF002004E0024B5A68EE
:100F680042F001025A607047002004E0024B5A68C0
:100F780022F001025A607047002004E0024B5A68D0
:100F880042F002025A607047002004E0024B5A689F
:100F980022F002025A607047002004E0024B5A68AF
:100FA80042F004025A607047002004E0024B5A687D
:100FB80022F004025A607047002004E0012393FAEB
:100FC800A3F1B1FA81F1024AC9B242F8213070475F
:100FD80000042742012292FAA2F2B2FA82F2034BEB
:100FE800D2B2002143F82210704700BF0004274204
:100FF800C31E042B10B5044603D90948A4210CF0DC
:10100800CDFF084AD1684FF6FF030B4043F0BF639A
:1010180043F4003304F0070443EA0424D46010BD09
:101028004001010800ED00E00F2A70B5154604469E
:101038000E4603D91B48BC210CF0B0FF0F2E03D974
:101048001848BD210CF0AAFF174BDB68C3F3022335
:10105800C3F107001A1D042828BF0420062A01D955
:10106800033B00E00023012202FA00F0013802FAF3
:1010780003F2013A0640154006FA03F31D43002C1B
:101088004FEA051506DA094B04F00F04E318EDB230
:101098001D7670BD04F1604404F56144EDB284F836
:1010A800005370BD4001010800ED00E0FCEC00E0D9
:1010B80010B5041E03DA0748D0210CF06FFF62094F
:1010C800012304F01F0403FA04F4034B43F82240FD
:1010D80010BD00BF4001010800E100E010B5041E8A
:1010E80003DA0748E0210CF059FF6209012304F0F4
:1010F8001F0403FA04F42032024B43F8224010BDC7
:101108004001010800E100E0BFF34F8F044A054B9E
:10111800D16801F4E0610B43D360BFF34F8FFEE762
:1011280000ED00E00400FA050138B0F1807F0BD231
:10113800064B074958600022F02081F823009A6086
:10114800104607221A6070470120704710E000E03F
:1011580000ED00E0024BD868C0F30220704700BFE2
:1011680000ED00E0F8B50D4603390429044616469B
:101178001F4604D9174840F231110CF00FFF002C1C
:1011880005DA154804F00F042018007E05E004F184
:10119800604404F5614494F8000305F00701C1F1C7
:1011A80007040B1D0009042C28BF0424062B01D9B1
:1011B800033900E00021012303FA04F403FA01F3E0
:1011C800013C20FA01F1013B2140184031603860B0
:1011D800F8BD00BF40010108FCEC00E010B5041E9A
:1011E80004DA08484FF4A0710CF0D8FE6209012314
:1011F80004F01F0403FA04F44032034B43F822407E
:1012080010BD00BF4001010800E100E010B5041E58
:1012180004DA0A484FF4A9710CF0C0FE62094032A2
:10122800074B04F01F0453F82230012202FA04F499
:101238001C420CBF0020012010BD00BF4001010866
:1012480000E100E010B5041E04DA08484FF4B1715B
:101258000CF0A4FE6209012304F01F0403FA04F44D
:101268006032034B43F8224010BD00BF4001010823
:1012780000E100E010B5041E04DA0A4840F27311D8
:101288000CF08CFE62098032074B04F01F0453F8FF
:101298002230012202FA04F41C420CBF0020012073
:1012A80010BD00BF4001010800E100E0042810B5AE
:1012B800084C09D020B108484FF4C2710CF06EFEFA
:1012C800236823F0040302E0236843F00403236047
:1012D80010BD00BF10E000E040010108704708B5EC
:1012E800FFF7FCFF08BD00BF704710B5044690B17A
:1012F80003680A4A934203D0094879210CF04EFE4C
:10130800637913B920460BF09DFF02236371012313
:101318000020637110BD012010BD00BF00300240E5
:101328007E010108704710B5044680B10368094A78
:10133800934203D008489A210CF030FE022320463D
:1013480063710BF08DFF00206071207110BD0120CA
:1013580010BD00BF003002407E0101080379012B57
:1013680030B54FF0020312D00124437104710023F9
:1013780004E051F823500468013325609342F8D102
:1013880001220368427100220271186830BD1846B4
:1013980030BD0379012B30B54FF0020415D0036836
:1013A80044719D68012445F00105047100249D6085
:1013B80003E051F8245001341D609442F9D1012210
:1013C800427100220271186830BD204630BD407954
:1013D800704700BF2DE9F0420446002800F008815C
:1013E8000368854A934231D0183293422ED018327E
:1013F80093422BD01832934228D01832934225D0EA
:101408001832934222D0183293421FD01832934296
:101418001CD002F55672934218D01832934215D058
:101428001832934212D0183293420FD01832934296
:101438000CD01832934209D01832934206D0183291
:10144800934203D06D48BF210CF0A8FD6368C3B177
:10145800B3F1007F15D0B3F1806F12D0B3F1C06F34
:101468000FD0B3F1006F0CD0B3F1206F09D0B3F1F6
:10147800406F06D0B3F1606F03D06048C0210CF014
:101488008DFDA3683BB1402B05D0802B03D05B4872
:10149800C1210CF083FDE368B3F5007F04D01BB1D4
:1014A8005648C2210CF07AFD2369B3F5806F04D049
:1014B8001BB15248C3210CF071FD63694BB1B3F500
:1014C800006F06D0B3F5805F03D04C48C4210CF000
:1014D80065FDA3694BB1B3F5005F06D0B3F5804F46
:1014E80003D04648C5210CF059FDE36943B1B3F573
:1014F800807F05D0202B03D04048C6210CF04EFD3C
:10150800236A63B1B3F5803F09D0B3F5003F06D035
:10151800B3F5403F03D03948C7210CF03FFD636A5B
:101528002BB1042B03D03548C8210CF037FD636A72
:1015380023B3A36A032B03D93048CD210CF02EFD29
:10154800E36A63B1B3F5000F09D0B3F1807F06D029
:10155800B3F1C07F03D02948CE210CF01FFD236BC7
:1015680063B1B3F5001F09D0B3F5800F06D0B3F50A
:10157800C00F03D02148CF210CF010FDA368676885
:10158800E6682569A1692068E269DFF87490D4F8F3
:1015980024C01F433E433543022684F835606669FC
:1015A800076845EA060319430A43216A07EA090955
:1015B80042EA0103BCF1040F43EA090303D1216B9A
:1015C800E26A0A43134303604369BCF1040F08BF8E
:1015D800A26A23F0070343EA0C0308BF13434361DD
:1015E80000220123E264104684F83530BDE8F08219
:1015F8000120BDE8F08200BF10600240B901010877
:101608003F8010F010B5002800F0C88190F8353000
:10161800022B00F0C38103681968002221F0010140
:1016280019601A605A609A60DA601A6121225A6158
:10163800AE4A934218D9183293420AD018329342CC
:1016480009D0183293420CBF4FF480224FF08072B9
:1016580003E0A74A01E04FF48072A64CA649A342D2
:10166800CA6053D120225EE0A44A934219D902F5F8
:10167800567293420AD01832934209D018329342D4
:101688000CBF4FF480224FF0807203E0984A01E0CB
:101698004FF480729A4C9849A3428A6049D120221B
:1016A80054E0984A934218D9183293420AD0183213
:1016B800934209D0183293420CBF4FF480224FF066
:1016C800807203E08A4A01E04FF480728E4C8F49A1
:1016D800A342CA6040D120224BE08D4A93420AD0EF
:1016E8001832934209D0183293420CBF4FF480222B
:1016F8004FF0807203E07E4A01E04FF48072844C20
:101708008249A3428A603AD1202245E0814A934225
:1017180007D0183293420CBF4FF400124FF000620A
:1017280001E04FF40062CA60724A93423AD108223B
:1017380045E0794A934207D0183293420CBF4FF4E0
:1017480000124FF0006201E04FF400628A606C4AB8
:1017580093423BD1082246E0704A934207D01832A0
:1017680093420CBF4FF400124FF0006201E04FF4B7
:101778000062CA60644A93423CD1082247E0684A42
:10178800934207D0183293420CBF4FF400124FF027
:10179800006201E04FF400628A605D4A93423DD1E5
:1017A800082248E05B4A934207D0183293420CBFA4
:1017B8004FF400224FF0007201E04FF400724D4CDC
:1017C8004D49A342CA603DD1564A47E0524A934226
:1017D80007D0183293420CBF4FF400224FF000722A
:1017E80001E04FF40072464C4349A3428A603BD162
:1017F8004C4A45E0494A934207D0183293420CBFFD
:101808004FF400224FF0007201E04FF400723E4C9A
:101818003E49A342CA6039D1424A43E0404A934212
:1018280007D0183293420CBF4FF400224FF00072D9
:1018380001E04FF40072364C3449A3428A6037D134
:10184800384A41E0334A934207D0183293420CBFDA
:101858004FF480324FF4800200E04022CA60254AEB
:10186800934237D1102361E02B4A934207D01832B4
:1018780093420CBF4FF480324FF4800200E04022C4
:101888008A601F4A934253D110235EE0234A934251
:1018980007D0183293420CBF4FF480324FF48002C5
:1018A80000E04022CA60184A934250D110235BE0FE
:1018B8001B4A934207D0183293420CBF4FF4803230
:1018C8004FF4800200E040228A60114A93424ED1D0
:1018D800102359E00F4A934226D01832934214BF7E
:1018E8004FF080634FF4801320E000BF586402403B
:1018F800040080007064024000640240B860024046
:10190800106402405860024070600240006002406B
:1019180010600240886402402864024088600240E7
:1019280028600240010080004FF480631C4A1CE0DC
:101938001C4A934207D01832934214BF4FF0806379
:101948004FF4801301E04FF48063154A1DE0164AF6
:10195800934207D01832934214BF4FF080634FF47C
:10196800801301E04FF48063104AD3600EE0104A00
:10197800934207D01832934214BF4FF080634FF45C
:10198800801301E04FF48063084A93600023C36426
:1019980080F8343080F83530184610BD012010BD6D
:1019A80000640240286402408860024000600240EF
:1019B800286002402DE9F0410E4690F834100129C4
:1019C8000546174698464FF0020026D003F1FF322D
:1019D800012385F834304FF6FE739A4285F83500B6
:1019E80004D90F484FF4B7710CF0D8FA2C68AB68DB
:1019F800226822F0010222602268402B22F4802211
:101A08002260C4F804800BBFA760A660E660E760A8
:101A1800236843F0010323600020BDE8F08100BF84
:101A2800B90101082DE9F0410E4690F8341001295A
:101A38000546174698464FF002003AD003F1FF32A8
:101A4800012385F834304FF6FE739A4285F8350045
:101A580004D919484FF4C7710CF0A0FA2C68AB6888
:101A6800226822F0010222602268402B22F48022A0
:101A78002260C4F804800BBFA760A660E660E76038
:101A8800236843F010032360236843F008032360AE
:101A9800236843F004032360636943F080036361B0
:101AA800236843F002032360236843F001032360A3
:101AB8000020BDE8F08100BFB901010838B503680E
:101AC8001A6822F001021A600446FFF713FA054665
:101AD80010E0FFF70FFA401BB0F57A7F0AD9E36CE4
:101AE80043F02003E3640320002384F8343084F8AF
:101AF800350038BD23681B6813F00103E9D10122C2
:101B080084F8343084F83520184638BD2DE9F74F6D
:101B18000368904605468946BA4A91BB934262D00B
:101B280002F5806293425ED0A2F5687293425AD061
:101B380002F58062934256D0A2F58962934254D04E
:101B480002F58062934250D0A2F5687293424CD05D
:101B580002F58062934248D0A2F58962934202D18D
:101B68004FF4001448E0A84A9342F9D0A2F56872ED
:101B78009342F5D002F580629342F1D04FF00064B1
:101B88003AE0934234D0A14A934231D0A2F5687228
:101B980093422DD002F58062934229D0A2F5896242
:101BA800934227D002F58062934223D0A2F568724F
:101BB80093421FD002F5806293421BD0A2F589623E
:101BC800934202D14FF4801416E08F4A9342F9D021
:101BD800A2F568729342F5D002F580629342F1D083
:101BE8004FF0806408E0202406E04FF4006403E02E
:101BF800102401E04FF48064FFF77CF9019039E28A
:101C0800834F7668BB420AD01837BB4209D01837D1
:101C1800BB4214BF4FF000774FF4002703E00827BA
:101C280001E04FF400773740794EDFF8FCA1B3426A
:101C3800DAF804A051D1774E5BE0744F3668BB42A6
:101C48000AD01837BB4209D01837BB4214BF4FF02F
:101C580000774FF4002703E0082701E04FF40077EE
:101C680037406A4EDFF8C0A1B342DAF800A04BD182
:101C7800684E55E0684F4668BB420AD01837BB42E9
:101C880009D01837BB4214BF4FF000774FF4002734
:101C980003E0082701E04FF4007737405E4ED0F8A4
:101CA80004A0B34247D15B4E51E09342076808D085
:101CB8008B4208D0634514BF4FF000764FF40026DE
:101CC80003E0082601E04FF400769342D0F800A024
:101CD80007EA060744D14F4E4CE0504EB34207D0B6
:101CE8001836B34214BF4FF480064FF4803600E034
:101CF800402606EA0A06DFF818A1DFF82CB153459A
:101D0800DBF804B03FD13BE0454EB34207D018366C
:101D1800B34214BF4FF480064FF4803600E04026EB
:101D280006EA0A06DFF8E4A0DFF8FCB05345DBF862
:101D380000B02BD124E03B4EB34207D01836B34253
:101D480014BF4FF480064FF4803600E0402606EAC0
:101D58000A06DFF8C4A0D0F804B0534519D10FE043
:101D68008B4206D0634514BF4FF480064FF480368B
:101D780000E040269342D0F800B006EA0A0615D1E2
:101D8800DFF8A8A01DE0DFF894A004E0DFF890A039
:101D980001E0DFF890A0534511D00AF1180A534525
:101DA80014BF4FF0807A4FF4802A0AE08B4206D0A5
:101DB800634514BF4FF0807A4FF4802A01E04FF456
:101DC800807A0AEA0B0A002F40F0E083002E75D1D2
:101DD800BAF1000F00F03781CBE00D4A93420AD0E8
:101DE8001832934209D01832934214BF4FF0007250
:101DF8004FF4002203E0082201E04FF400720A4980
:101E080044E000BF10600240406402401064024099
:101E180070640240010080007060024088640240E3
:101E28002864024088600240006402400400800088
:101E3800B04A934214D902F5567293420AD0183226
:101E4800934209D01832934214BF4FF000724FF4F6
:101E5800002203E0082201E04FF40072A6492AE0BC
:101E6800A64A934214D9183293420AD018329342A0
:101E780009D01832934214BF4FF000724FF4002279
:101E880003E0082201E04FF400729D49CA6013E0A4
:101E98009C4A93420AD01832934209D0183293428E
:101EA80014BF4FF000724FF4002203E0082201E053
:101EB8004FF4007292498A60002E5AD0EA6C42F0C0
:101EC8000202EA64904A934212D9183293420AD025
:101ED8001832934209D0183293420CBF4FF4803223
:101EE8004FF4800202E0894A00E0402282492BE058
:101EF800804A934213D902F5567293420AD0183297
:101F0800934209D0183293420CBF4FF480324FF4F9
:101F1800800202E07D4A00E04022774928E0774AC3
:101F2800934213D9183293420AD01832934209D0F7
:101F3800183293420CBF4FF480324FF4800202E013
:101F4800724A00E040226E49CA6012E06D4A93422C
:101F58000AD01832934209D0183293420CBF4FF47A
:101F680080324FF4800202E0684A00E0402264496F
:101F78008A60BAF1000F5ED0EA6C42F00402EA64AB
:101F8800614A934213D9183293420AD018329342C5
:101F980009D01832934214BF4FF080734FF4802356
:101FA80003E05B4B01E04FF48073534A2DE0514A44
:101FB800934214D902F5567293420AD018329342CA
:101FC80009D01832934214BF4FF080734FF4802326
:101FD80003E04F4B01E04FF48073474A2AE0474A39
:101FE800934214D9183293420AD01832934209D036
:101FF8001832934214BF4FF080734FF4802303E0EC
:10200800434B01E04FF480733D4AD36013E03D4AEF
:1020180093420AD01832934209D01832934214BF1F
:102028004FF080734FF4802303E0394B01E04FF405
:102038008073334A9360042385F83530002385F88C
:1020480034300120B5E2B8F1FF3F19D0B8F1000FE4
:102058000AD1EB6C43F02003EB640320002385F8DE
:10206800343085F83500A4E2FEF744FF019BC01A1E
:102078004045EED82B682248224A2649DFF89CC002
:10208800214EB34209D9583E77683C423FF4B8AD77
:102098001D4AB9F1000F17D0AEE1164EB34206D96A
:1020A80006F5527637683C423FF4C7ADF0E7134E69
:1020B800B34204D9466834423FF4DCADE8E7066829
:1020C80034423FF4F2ADE3E71968490340F1CE80AA
:1020D80093422ED9104A93420AD0183293421FD005
:1020E800183293420CBF4FF480124FF0806219E00F
:1020F800102217E0B86002400064024058600240B5
:1021080000600240106002405864024001008000F4
:102118000400800028600240706402404060024071
:102128004FF48062AC48AD498342CA6046D1202250
:102138007CE0AB4A934214D902F5567293420AD016
:102148001832934209D0183293420CBF4FF48012D0
:102158004FF0806203E0102201E04FF480629F4953
:102168002AE0A04A934214D9183293420AD018326E
:10217800934209D0183293420CBF4FF480124FF0AB
:10218800806203E0102201E04FF480629649CA6041
:1021980005E2964A93420AD01832934209D018327F
:1021A80093420CBF4FF480124FF0806203E010227C
:1021B80001E04FF480628C498A60F0E18C4A9342D6
:1021C80007D01832934214BF4FF000624FF4001248
:1021D8002CE04FF4006229E0864A93420AD0183274
:1021E800934209D01832934214BF4FF000624FF463
:1021F800001203E0202201E04FF4006277492AE050
:10220800784A934214D9183293420AD0183293422A
:1022180009D01832934214BF4FF000624FF40012F5
:1022280003E0202201E04FF400626F49CA6013E026
:102238006E4A93420AD01832934209D01832934218
:1022480014BF4FF000624FF4001203E0202201E0B7
:102258004FF4006264498A601A68120300D4B4E03B
:102268001B68180340F1B4802123AFE0934218D9CA
:10227800594A93420AD01832934209D018329342ED
:102288000CBF4FF480124FF0806203E0102201E08F
:102298004FF48062504851498342CA6046D1202396
:1022A80051E04F4A934214D902F5567293420AD02C
:1022B8001832934209D0183293420CBF4FF480125F
:1022C8004FF0806203E0102201E04FF4806243493E
:1022D8002AE0444A934214D9183293420AD0183259
:1022E800934209D0183293420CBF4FF480124FF03A
:1022F800806203E0102201E04FF480623A49CA602C
:1023080052E13A4A93420AD01832934209D018321D
:1023180093420CBF4FF480124FF0806203E010220A
:1023280001E04FF4806230498A603DE1304A9342CF
:1023380007D01832934214BF4FF000634FF40013D4
:1023480001E04FF40063CB603FE02A4A93420AD091
:102358001832934209D01832934214BF4FF00063E9
:102368004FF4001303E0202301E04FF400631B4AFD
:102378002AE01C4A934214D9183293420AD01832E0
:10238800934209D01832934214BF4FF000634FF4C0
:10239800001303E0202301E04FF40063124AD360E6
:1023A80013E0124A93420AD01832934209D01832E5
:1023B800934214BF4FF000634FF4001303E020234F
:1023C80001E04FF40063084A9360112385F8353023
:1023D800002085F83400ECE070640240006402409C
:1023E800B86002405860024000600240106002403D
:1023F80088640240106402401968490367D5934213
:1024080013D96D4A93420AD01832934209D0183230
:10241800934214BF4FF080624FF4801203E0102201
:1024280001E04FF4806265492DE0654A934214D972
:1024380002F5567293420AD01832934209D01832E4
:10244800934214BF4FF080624FF4801203E01022D1
:1024580001E04FF4806259492AE05A4A934214D95C
:10246800183293420AD01832934209D01832934254
:1024780014BF4FF080624FF4801203E0102201E095
:102488004FF480625049CA6013E0504A93420AD020
:102498001832934209D01832934214BF4FF0806229
:1024A8004FF4801203E0102201E04FF480624649A5
:1024B8008A60186810F4002003D1312385F835307C
:1024C80077E0186810F4002073D041235AE0934253
:1024D80013D9394A93420AD01832934209D0183294
:1024E800934214BF4FF080634FF4801303E010232E
:1024F80001E04FF48063314A2DE0314A934214D908
:1025080002F5567293420AD01832934209D0183213
:10251800934214BF4FF080634FF4801303E01023FD
:1025280001E04FF48063254A2AE0264A934214D9F1
:10253800183293420AD01832934209D01832934283
:1025480014BF4FF080634FF4801303E0102301E0C1
:102558004FF480631C4AD36013E01C4A93420AD0AC
:102568001832934209D01832934214BF4FF0806357
:102578004FF4801303E0102301E04FF48063124A04
:102588009360312385F83530002012E0EA6C42F080
:102598000102EA640E4A93423FF61FAC48E4084A37
:1025A80093423FF619AE2BE6054A93423FF6CDAE6D
:1025B800DFE6BDE8FE8F00BF7064024000640240A1
:1025C800B86002405860024000600240106002405B
:1025D800586402400368A94A934210B5044603D9D7
:1025E80052F8541C183210E0A54A934204D9D2F884
:1025F800481302F5567208E0A249A34A8B4202D951
:102608005168703201E01168A04A93420AD018322A
:10261800934209D01832934214BF4FF000724FF41E
:10262800002203E0082201E04FF400720A420CBFC6
:1026380000220122002A6FD01A6850076CD51A6848
:1026480022F004021A608D4A934213D91832934239
:102658000AD01832934209D01832934214BF4FF06F
:1026680000734FF4002303E0082301E04FF40073E4
:10267800874A2DE0824A934214D902F55672934252
:102688000AD01832934209D01832934214BF4FF03F
:1026980000734FF4002303E0082301E04FF40073B4
:1026A8007B4A2AE0774A934214D9183293420AD0D7
:1026B8001832934209D01832934214BF4FF0007376
:1026C8004FF4002303E0082301E04FF400736E4A3F
:1026D800D36013E06D4A93420AD01832934209D06E
:1026E8001832934214BF4FF000734FF4002303E0F5
:1026F800082301E04FF40073634A9360E26CA36C13
:1027080042F00102E264002284F83420042284F8B2
:1027180035200BB1204698472368584A934203D97D
:1027280052F8541C183210E0554A934204D9D2F892
:10273800481302F5567208E05249534A8B4202D9AF
:102748005168703201E01168504A93420AD0183239
:10275800934209D01832934214BF4FF480024FF4C9
:10276800803202E04B4A00E040220A420CBF0022BD
:102778000122002A6BD05A69110668D55A6922F0DD
:1027880080025A613D4A934212D9183293420AD0C4
:102798001832934209D01832934214BF4FF4800381
:1027A8004FF4803302E03B4B00E04023384A2BE0F3
:1027B800334A934213D902F5567293420AD018321B
:1027C800934209D01832934214BF4FF480034FF458
:1027D800803302E02F4B00E040232D4A28E0294AAD
:1027E800934213D9183293420AD01832934209D02F
:1027F8001832934214BF4FF480034FF4803302E041
:10280800244B00E04023204AD36012E01F4A934241
:102818000AD01832934209D01832934214BF4FF4A9
:1028280080034FF4803302E01A4B00E04023164A3D
:102838009360E26CA36C42F00202E264002284F826
:102848003420042284F835200BB1204698472368A9
:102858000A4A934203D952F8541C18321EE0084A17
:10286800934204D9D2F8481302F5567216E0054986
:10287800054A8B4210D9516870320FE05864024003
:10288800B860024058600240006002401060024098
:1028980000640240010080001168AC4A93420AD0EB
:1028A8001832934209D01832934214BF4FF0807205
:1028B8004FF4802203E0A64A01E04FF480720A42F6
:1028C8000CBF00220122002A6FD01A6892076CD52B
:1028D8001A6822F002021A609E4A934213D91832EB
:1028E80093420AD01832934209D01832934214BF47
:1028F8004FF080734FF4802303E0954B01E04FF4D1
:102908008073954A2DE0954A934214D902F5567280
:1029180093420AD01832934209D01832934214BF16
:102928004FF080734FF4802303E0894B01E04FF4AC
:102938008073894A2AE08A4A934214D9183293420A
:102948000AD01832934209D01832934214BF4FF07C
:1029580080734FF4802303E07D4B01E04FF48073D4
:10296800804AD36013E0794A93420AD018329342DE
:1029780009D01832934214BF4FF080734FF480236C
:1029880003E0734B01E04FF48073764A9360E26C86
:10299800A36C42F00402E264002284F8342004228A
:1029A80084F835200BB1204698472368694A93423A
:1029B80003D952F8541C183210E0684A934204D9DB
:1029C800D2F8481302F5567208E06549654A8B4209
:1029D80002D95168703201E011685C4A93420AD00A
:1029E8001832934209D01832934214BF4FF08062D4
:1029F8004FF4801203E0102201E04FF480620A4293
:102A08000CBF00220122002A00F0E3801A68100798
:102A180040F1DF8019684F4A490362D5934213D9C0
:102A2800183293420AD01832934209D0183293428E
:102A380014BF4FF080624FF4801203E0102201E0CF
:102A48004FF4806244492DE0444A934214D902F578
:102A5800567293420AD01832934209D018329342E0
:102A680014BF4FF080624FF4801203E0102201E09F
:102A78004FF4806238492AE0394A934214D918320F
:102A880093420AD01832934209D01832934214BFA5
:102A98004FF080624FF4801203E0102201E04FF4FF
:102AA80080623049CA6013E0284A93420AD018323B
:102AB800934209D01832934214BF4FF080624FF40A
:102AC800801203E0102201E04FF4806225498A60F9
:102AD8001A68120300D475E01B68180375D54123E2
:102AE80071E01968C90503D4196821F00801196053
:102AF800934213D91C4A93420AD01832934209D000
:102B08001832934214BF4FF080634FF4801303E0F0
:102B1800102301E04FF480630F4A3DE00F4A9342CF
:102B280024D902F5567293420AD01832934209D03A
:102B38001832934214BF4FF080634FF4801303E0C0
:102B4800102301E04FF48063034A3AE0106002402A
:102B5800040080005864024000640240B8600240EB
:102B68005860024000600240706402409E4A9342EE
:102B780014D9183293420AD01832934209D0183225
:102B8800934214BF4FF080634FF4801303E0102387
:102B980001E04FF48063954AD36013E0944A93426E
:102BA8000AD01832934209D01832934214BF4FF01A
:102BB80080634FF4801303E0102301E04FF4806337
:102BC8008A4A9360312384F83530236C0BB1204650
:102BD80098472368874A934203D952F8541C1832FD
:102BE80010E0854A934204D9D2F8481302F5567288
:102BF80008E07D497D4A8B4202D95168703201E074
:102C080011687B4A93420AD01832934209D018328D
:102C1800934214BF4FF000624FF4001203E02022E9
:102C280001E04FF400620A420CBF00220122002A90
:102C380000F0D9801A68D00640F1D58019686D4A2D
:102C4800490363D5934213D9183293420AD01832F4
:102C5800934209D01832934214BF4FF000624FF4E8
:102C6800001203E0202201E04FF4006263492DE0E6
:102C7800614A934214D902F5567293420AD0183227
:102C8800934209D01832934214BF4FF000624FF4B8
:102C9800001203E0202201E04FF4006257492AE0C5
:102CA800514A934214D9183293420AD018329342A7
:102CB80009D01832934214BF4FF000624FF400124B
:102CC80003E0202201E04FF400624849CA6013E0A3
:102CD800474A93420AD01832934209D01832934295
:102CE80014BF4FF000624FF4001203E0202201E00D
:102CF8004FF400623D498A601A68120301D4636C7C
:102D08006EE01B681B036ED5E36B69E01968C805A4
:102D180003D4196821F010011960934213D9384A75
:102D280093420AD01832934209D01832934214BF02
:102D38004FF000634FF4001303E0202301E04FF449
:102D480000632E4A2DE02C4A934214D902F556729C
:102D580093420AD01832934209D01832934214BFD2
:102D68004FF000634FF4001303E0202301E04FF419
:102D78000063224A2AE01C4A934214D9183293422B
:102D88000AD01832934209D01832934214BF4FF038
:102D980000634FF4001303E0202301E04FF40063C5
:102DA800124AD36013E0124A93420AD0183293426F
:102DB80009D01832934214BF4FF000634FF4001348
:102DC80003E0202301E04FF40063084A9360E26CBB
:102DD800E36BE264112284F83520002284F8342061
:102DE8000BB12046984710BD586002400060024071
:102DF8001060024058640240B8600240006402401B
:102E08007064024090F835007047C06C704700BF8E
:102E1800B24B98422DE9F74F04460D4623D003F5EF
:102E2800806398421FD003F5806398421BD003F556
:102E38008063984217D003F58063984213D003F556
:102E4800806398420FD003F5806398420BD003F556
:102E58008063984207D003F58063984203D0A04866
:102E6800C5210BF09BF82B881BB99D48C6210BF098
:102E780095F86B68012B22D9112B20D0022B1ED07C
:102E8800122B1CD0974A934219D002F58012934214
:102E980015D002F58012934211D0A2F5F812934290
:102EA8000DD002F58012934209D002F580129342A8
:102EB80005D0032B03D08A48C7210BF06FF8AB6805
:102EC800022B03D98648C8210BF068F8DFF81C826A
:102ED800DFF81C920026C24601232F6803FA06F386
:102EE8001F409F4240F0F3806B68022B01D0122BE9
:102EF80035D12B69FBB1092B1DD0012B1BD0022B1F
:102F080019D0032B17D0042B15D0052B13D0062B63
:102F180011D0072B0FD0082B0DD00A2B0BD00B2B61
:102F280009D00C2B07D00D2B05D00F2B03D06C48E4
:102F3800D9210BF033F8F308083306F007012A69A2
:102F480054F8230089004FF00F0C0CFA01FC20EA1A
:102F58000C0002FA01F140EA010244F823206B68F0
:102F680021684FEA460B4FF0030C0CFA0BFC6FEA92
:102F78000C0C03F0030202FA0BF20CEA01011143F4
:102F88005A1E012A216003D9112B01D0122B1CD102
:102F9800EB68032B07D95248CDF804C0EC210AF09E
:102FA800FDFFDDF804C0A168EA686B680CEA01015E
:102FB80002FA0BF20A43A2606268C3F3001322EA22
:102FC800070203FA06F313436360AB68E1686A68B3
:102FD8000CEA010C03FA0BFB4CEA0B03E360D30089
:102FE80075D5D9F84430B10843F4804301F1020C97
:102FF800C9F844303C4B06F0030053F82C308000ED
:103008004FF00F0C0CFA00FC23EA0C0C334B9C42DB
:1030180022D003F580639C4220D003F580639C4254
:103028001ED003F580639C421CD003F580639C424C
:103038001AD003F580639C4218D003F580639C4244
:1030480016D003F580639C4214D003F580639C423C
:1030580014BF092308230EE000230CE001230AE033
:10306800022308E0032306E0042304E0052302E02A
:10307800062300E00723023103FA00F01A4B40EA66
:103088000C0043F82100D8F80010FB431940D00386
:1030980048BF3943CAF80010DAF80410900301EA6F
:1030A800030148BF3943C8F80410D8F80810D00203
:1030B80001EA030148BF3943CAF80810DAF80C10CE
:1030C800920203EA010348BF3B43C8F80C300136BB
:1030D800102E7FF401AFBDE8FE8F00BF0000024054
:1030E800F40101080000111000380140003C0140C3
:1030F800003802402DE9F84F414B98420446884673
:1031080024D003F58063984220D003F58063984269
:103118001CD003F58063984218D003F58063984269
:1031280014D003F58063984210D003F58063984269
:103138000CD003F58063984208D003F58063984269
:1031480004D030484FF4A1710AF028FF2E4F2F4ABF
:10315800002301214FF003090F2601FA03F505EAC0
:103168000800A84247D15D00D4F800A009FA05F587
:10317800ED434FEAD30C0CF1080C05EA0A0AC4F82F
:1031880000A003F0070A54F82CB04FEA8A0A06FA9E
:103198000AFA2BEA0A0A44F82CA0D4F808C005EA6F
:1031A8000C0CC4F808C0D4F804C0C04300EA0C0CE6
:1031B800C4F804C0D4F80CA04FEA930C05EA0A0539
:1031C8000CF1020CE56003F0030A57F82C504FEAA3
:1031D8008A0A06FA0AFA25EA0A0547F82C501568F9
:1031E800054015605568054055609568054095602F
:1031F800D5682840D0600133102BAED1BDE8F88FD8
:1032080000000240F401010800380140003C014080
:1032180038B50C46054621B9054840F28B110AF02D
:10322800BDFE2B691C420CBF0020012038BD00BF29
:10323800F401010870B50C460546164621B909483F
:103248004FF4D6710AF0AAFE012E05D9054840F2BE
:10325800AD110AF0A3FE02E006B100E02404AC615F
:1032680070BD00BFF401010838B50D46044621B908
:10327800044840F2C3110AF091FE63695D4065613C
:1032880038BD00BFF401010837B54FF480330D464F
:103298000446019321B90A484FF4EC710AF07EFE06
:1032A800019B2B430193019BE361E561019BE36172
:1032B800E3690193E06980F48030C0F300403EBDCB
:1032C800F4010108704708B5034B5969084202D058
:1032D8005861FFF7F7FF08BD003C01402DE9F041B8
:1032E8000E461D4690460446FDF704FE330C07467D
:1032F800B8F1000F0AD02EE06A1C09D005B91BE00E
:10330800FDF7F8FDC01BA84202D915E05FFA83F863
:103318002268B8F1010F0CBF53699369DB439BB274
:1033280033420CBF00220122002AE5D10020BDE86B
:10333800F0816B1C11D045B9012384F83530002386
:1033480084F834300320BDE8F081FDF7D3FDC01BBD
:10335800A84202D9F0E75FFA83F82368B8F1010FB1
:103368000CBF5B699B69DB439BB2334214BF0023EC
:103378000123002BDDD1D9E72DE9F0410D460446A4
:103388001646C1F30747FDF7B5FD804627E02368D9
:103398005A69500511D5196841F4007119606FF424
:1033A8008061596104230122A3630023104684F835
:1033B800343084F83520BDE8F081711C0FD046B94F
:1033C800012384F83530002384F834300320BDE825
:1033D800F081FDF78FFDC8EB0000B042F0D82368FC
:1033E800012F0CBF5B699B69DB439BB22B420CBF6F
:1033F80000230123002BCAD11846BDE8F0812DE92E
:10340800F74306680A9D376847F48067376037686E
:1034180047F4807E884617469946C6F800E04FF084
:10342800011100222B460446FFF758FF00284FD110
:103438002368294908F0FE021A6120462A46FFF748
:103448009BFF024600B13DE023682449586901907A
:103458009B69204601932B46019EFFF73FFF0246DA
:1034680000B135E0B9F1010F236800D108E0390A4D
:103478001961204619492B46FFF730FF40BB2368E6
:10348800FFB21F610022204614492B46FFF726FF92
:103498000246E8B92368196841F48071196020462A
:1034A8004FF001112B46FFF719FF88B923680A4925
:1034B80048F001085FFA88F21A6120462A46FFF7A9
:1034C8005BFF30B1A06B042814BF0320012000E08B
:1034D8000320BDE8FE8300BF020001008000010058
:1034E8002DE9F74307680A9D3E6846F4807E8946C1
:1034F80016469846C7F800E04FF0011100222B4607
:103508000446FFF7EBFE002831D12368194909F07A
:10351800FE021A6120462A46FFF72EFF024628B10E
:10352800A06B042814BF0320012021E02068124961
:10353800436901938369204601932B46019FFFF756
:10354800CDFE024600B112E0B8F1010F236802D1A6
:10355800F6B21E610CE0310A1961204606492B4675
:10356800FFF7BCFE18B92368F6B21E6100E003201D
:10357800BDE8FE8302000100800001000368F7B582
:1035880015461A6842F480621A601A6842F480721A
:103598001A600E4600224FF001112B460446FFF731
:1035A8009DFE002841D122692368B2F5804F04D1DD
:1035B80046F00106F6B21E6130E006F44077FF11CE
:1035C80047F0F0021A61204619492A46FFF7D4FE4F
:1035D80020B1A36B042B28D1012027E023681549CB
:1035E800F6B22A461E612046FFF7C6FE024600B123
:1035F800EFE723685969019199690191019919685F
:1036080041F48071196020464FF001112B46FFF7F5
:1036180065FE50B9236847F0F1071F612046054948
:103628002A46FFF7A9FE08B1D3E70320FEBD00BF75
:103638000800010002000100036870B515461A6809
:1036480042F480721A600E4600224FF001112B4698
:103658000446FFF743FE10BB22692368B2F5804F8A
:1036680002D106F0FE0612E006F44072D21142F0D2
:10367800F0021A6120460B492A46FFF77DFE20B169
:10368800A36B042B0BD1012070BD2368F6B21E6119
:10369800204605492A46FFF76FFE08B1F0E70320E8
:1036A80070BD00BF08000100020001007047F8B5B6
:1036B8000446002800F0BC8003685E4A93420CD0A0
:1036C80002F58062934208D002F58062934204D0EA
:1036D80059484FF496710AF061FC6368574A013BF8
:1036E800934204D9544840F22D110AF057FCA368BC
:1036F8003BB1B3F5804F04D04F484FF497710AF0AF
:103708004DFCE36823F47F7323F0030323B14A4895
:1037180040F22F110AF042FC2369B3F5804F07D01D
:10372800B3F5404F04D044484FF498710AF036FC82
:103738006369012B04D9404840F231110AF02EFC8C
:10374800A36933F0FE0004D03B484FF499710AF0A6
:1037580025FCE36933B1402B04D0374840F23311DC
:103768000AF01CFC236A33B1802B04D032484FF492
:103778009A710AF013FC94F8353013B9204609F011
:103788001FFE23682E4D022284F835201A6822F085
:1037980001021A6003F02EFE62682A492368B0FB12
:1037A800F1F1AA42596000D806E04FF496767143C9
:1037B8004FF47A76B1FBF6F10131AA42196208D8C2
:1037C8005200B0FBF2F00205B2F5401F98BF04208A
:1037D80016E0A16831B903214A43B0FBF2F00205B3
:1037E8000DD006E019214A43B0FBF2F0020506D0DD
:1037F80002E040F4004003E040F4404000E00120D3
:10380800A169E769E66825696269D861206A0A439F
:10381800074335431F609D60DA60196841F0010174
:10382800196000220123A263104684F83530F8BDE0
:103838000120F8BD00540040300201087F1A06003C
:10384800A086010040420F00704710B5044610B32F
:103858000368124A93420CD002F58062934208D062
:1038680002F58062934204D00D4840F277110AF0C5
:1038780095FB2368022284F835201A6822F0010299
:1038880020461A6009F0BCFD0020A06384F83400CB
:1038980084F8350010BD012010BD00BF0054004061
:1038A800300201082DE9F743164690F835200A9FA3
:1038B800012A044690461D465DD1002E59D0002BA2
:1038C80057D003689B6913F0020954D190F834303B
:1038D800012B50D0122380F8353080F83420C0F8FE
:1038E80038903A46FFF7A8FE28B1A36B84F83490C5
:1038F800042B0FD13DE023685A6901929B6901931B
:10390800019B20461D4900223B46FFF7E7FC013D8D
:10391800ADB208B103202FE0327823681A615A69E2
:10392800520701D401360EE0691E45B920461349F5
:1039380000223B46FFF7D2FC0028EBD106E0727864
:103948008DB21A610236002DDBD1EFE723680C49EE
:103958001A6842F400721A60204601223B46FFF7BB
:10396800BDFC0028D6D1012384F8353084F8340012
:1039780002E0404600E00220BDE8FE83800001002E
:10398800020010002DE9F043164690F8352085B066
:10399800012A04460C9F90461D4640F0BF80002E29
:1039A80000F0BA80002B00F0B78003689B6913F021
:1039B800020940F0B38090F83430012B00F0AE805B
:1039C800222380F8353080F83420C0F838903A4601
:1039D800FFF7D4FD28B1A36B84F83490042B34D1BD
:1039E8009AE02168012D0B680CD123F480630B60E9
:1039F8004B6901938B690193019B0B6843F4007336
:103A08000B6074E0022D0CD123F480630B600B680B
:103A180043F400630B604B6902938B690293029B2A
:103A280065E043F480630B604B6903938B690393F0
:103A3800039B5CE0032D204642D8012D0CD1394967
:103A480000223B46FFF74AFC08B1032067E02368E1
:103A58001B69054633704CE00022022D32493B4673
:103A68000FD1FFF73BFC0028EFD123681A6842F416
:103A780000721A601B69337023681B6905467370EE
:103A880037E0FFF72BFC02460028DED123682649E1
:103A9800186820F4806018601B69204633703B4624
:103AA800FFF71CFC0028D0D123681A6842F4007282
:103AB8001A601B69737023681B690546B37018E0A8
:103AC800002218493B46FFF709FC013DADB26A1ECA
:103AD8000028BAD123681B693370236859694907DC
:103AE80001D4013603E01B6995B273700236002DCC
:103AF800A0D123680D491A6822F400621A60204692
:103B080001223B46FFF7EAFB00289ED1012384F8F7
:103B1800353084F8345002E0404600E0022005B019
:103B2800BDE8F0834000010004000100020010001D
:103B380090F835C02DE9F3410E4661460129044647
:103B480015461F4675D1002E71D0002A6FD0016826
:103B58008A6912F002026CD190F83480B8F1010F32
:103B680067D04FF0120E80F835E08263D1F800E09C
:103B780080F834C04EF4806EC1F800E02E49FFF79B
:103B8800ADFB024608B1032054E023682169586957
:103B980000909B69B1F5404F0093009B0CD12046E3
:103BA80025493B46FFF79AFB0028ECD123685A6960
:103BB80001929B690193019B2046204900223B46C4
:103BC800FFF78CFB013DADB20028DCD132782368C9
:103BD8001A615A69500701D401360FE0691E4DB9C0
:103BE80020464FF4823100223B46FFF777FB00283E
:103BF800C9D106E072788DB21A610236002DDBD188
:103C0800EEE723680E496FF480625A611A6822F45D
:103C180080621A60204601223B46FFF75FFB0028BE
:103C2800B1D1012384F8353084F8340002E0084625
:103C380000E00220BDE8FC810200010080000100D4
:103C48000200100090F835C02DE9F3410E46614698
:103C58000129044615461F4667D1002E63D0002A65
:103C680061D001688A6912F002025ED190F834804E
:103C7800B8F1010F59D04FF0220E80F835E0826379
:103C8800D1F800E080F834C04EF4806EC1F800E04E
:103C98002749FFF723FB08B1032047E023685A6947
:103CA80000929B690093009B2046224900223B46D4
:103CB800FFF714FB013DADB20028EDD123681B6965
:103CC800337023685A69520701D401360EE06A1E20
:103CD80045B92046184900223B46FFF7FFFA00285D
:103CE800DAD106E01B6995B273700236002DDBD17C
:103CF800EFE72268114953690193136843F0010300
:103D08001360019B136823F480631360204601222B
:103D18003B46FFF7E3FA0028BED1012384F835308B
:103D280084F8340002E0084600E00220BDE8FC8187
:103D38000200010040000100100001000200100014
:103D4800F7B590F83570012F04463D4630D16AB377
:103D580063B30668B66916F0020629D190F834C034
:103D6800BCF1010F24D04FF0120E80F835E042620A
:103D7800866380F83470038543852322FFF75CFC53
:103D880038B1A36B84F83460042B00D10EE0032013
:103D98000FE023685A6901929A6984F83400019205
:103DA800019A5A6842F4E0625A6002E0284600E04C
:103DB8000220FEBDF0B590F83570012F85B004469D
:103DC8003D465CD1002A58D0002B56D00668B6690B
:103DD80016F0020653D190F834C0BCF1010F4ED052
:103DE8004FF0220E80F835E04262866380F8347026
:103DF800038543852322FFF7C1FB38B1A36B84F801
:103E08003460042B00D138E0032039E0638D9BB285
:103E1800012B0ED123681A6822F480621A605A694D
:103E280001929A690192019A1A6842F400721A6022
:103E38001AE0628D236892B2022A1A680CD122F421
:103E480080621A601A6842F400621A605A69029223
:103E58009B690293029B07E042F480621A605A69E8
:103E680003929B690393039B23685A68002042F4DA
:103E7800E06284F834005A6002E0284600E002203C
:103E880005B0F0BD90F83530012B30B51FD1E1B148
:103E9800DAB103689C6914F0020418D190F8345020
:103EA800012D14D0122580F83550846342851D6891
:103EB800416245F48061028519605A6880F834408F
:103EC80042F4E0625A60204630BD184630BD0220F8
:103ED80030BD90F83530012B30B51FD1E1B1DAB1E2
:103EE80003689C6914F0020418D190F83450012D2D
:103EF80014D0222580F83550846342851D684162BC
:103F080045F48061028519605A6880F8344042F4AB
:103F1800E0625A60204630BD184630BD022030BDF0
:103F280090F835C02DE9F7436546012D04468946CA
:103F380017463ED1002F3AD0002B38D0D0F8008059
:103F4800D8F8186016F0020633D190F83410012919
:103F58002FD0122184F83510C06A1749A66384F857
:103F680034C0676223856385C163144908F1100270
:103F780081643946FDF756FD204649462322FFF75E
:103F88005BFB38B1A36B84F83460042B00D10EE0DE
:103F980003200FE023685A6842F400625A605A69A5
:103FA80001929B6984F834000193019B02E0284642
:103FB80000E00220BDE8FE83914E0008694C00082D
:103FC8002DE9F74390F835804546012D044689468A
:103FD8001E464ED1002A4AD0002B48D0D4F800C043
:103FE800DCF8187017F0020743D194F8341001294F
:103FF8003FD0222184F83510D4F830E01E4962629F
:10400800A76384F8348023856385CEF83C101B4968
:104018007046CEF848100CF11001FDF703FD20465C
:1040280049462322FFF7AAFA38B1A36B84F8347003
:10403800042B00D11BE003201CE0012E236804D1CF
:104048001A6822F480621A6003E05A6842F48052C7
:104058005A6023685A6842F400625A605A690192A9
:104068009B6900200193019B84F8340002E02846F4
:1040780000E00220BDE8FE83354E0008694C0008C8
:10408800F0B590F83570012F044685B00E463846D5
:10409800134653D1002952D0002A50D0226895697E
:1040A80015F002054AD194F83400012846D0E06A98
:1040B800244E84F83470122784F835706162A56341
:1040C80023856385C663204E10328664FDF7AAFCFB
:1040D80023681E495A6842F400625A601A6842F41A
:1040E80080621A6020462A4642F21073FFF7F6F8FB
:1040F800024608B1032022E021692368B1F5804F08
:1041080005D15A6901929B690193019B12E0586994
:104118000E4902909B692046029342F21073029D59
:10412800FFF7DCF80028E5D123685A6903929B69F8
:104138000393039B002084F8340000E0022005B0BC
:10414800F0BD00BFC94D0008694C0008020001001D
:10415800F7B590F83570012F04460D4638461346DA
:1041680038D1002939D0002A37D021688E6916F055
:1041780002062FD194F83420012A2BD0222284F869
:1041880035206562206BA6632A46144D2385638516
:1041980084F83470C563124D10318564FDF742FC14
:1041A800236810495A6842F400625A601A6842F457
:1041B80080621A602046324642F21073FFF78EF88A
:1041C80050B923685A6901929B6984F834000193B5
:1041D800019B02E0022000E00320FEBD554D0008CF
:1041E800694C0008020001002DE9F04F85B0012B51
:1041F8009A4604468B460E9DBDF83C60109F08D039
:10420800102B06D0354803924FF4C56109F0C6FE5D
:10421800039A94F83530012B98465AD1002D56D080
:10422800002E54D02168886910F0020951D194F801
:10423800341001294DD0322184F8351084F83430F7
:10424800C4F838902046009759465346FFF748F976
:1042580028B1A36B84F83490042B09D137E02046A9
:104268001F4900223B46FFF739F8013EB6B208B1B4
:1042780003202FE02A7823681A615A69510701D46C
:1042880001350EE0711E46B92046154900223B460D
:10429800FFF724F80028EBD106E06A788EB21A619D
:1042A8000235002EDBD1EFE723680E491A6842F485
:1042B80000721A60204601223B46FFF70FF80028DB
:1042C800D6D1012384F8353084F8340002E0404622
:1042D80000E0022005B0BDE8F08F00BF3002010801
:1042E80080000100020010002DE9F04F89B0012B79
:1042F8009A4604468B46129EBDF84C50149F08D02F
:10430800102B06D06848039240F28C6109F046FEF3
:10431800039A94F83530012B984640F0C080002E5F
:1043280000F0BB80002D00F0B8802168886910F08B
:10433800020940F0B48094F83410012900F0AF80ED
:10434800422184F8351084F83430C4F83890204677
:10435800009759465346FFF752F828B1A36B84F8E3
:104368003490042B32D198E0012D22680DD11368C6
:1043780023F4806313605369059393690593059B40
:10438800136843F40073136072E0022D0DD11368B3
:1043980023F480631360136843F400631360536964
:1043A800069393690693069B62E0536907939369A2
:1043B8000793079B5CE0032D204642D8012D0CD1C2
:1043C8003A4900223B46FEF789FF08B1032067E01F
:1043D80023681B69054633704CE00022022D3449DE
:1043E8003B460FD1FEF77AFF0028EFD123681A6801
:1043F80042F400721A601B69337023681B69054612
:10440800737037E0FEF76AFF02460028DED12368A2
:104418002749186820F4806018601B6920463370AB
:104428003B46FEF75BFF0028D0D123681A6842F4A8
:1044380000721A601B69737023681B690546B370A4
:1044480018E0002219493B46FEF748FF013DADB28E
:104458006A1E0028BAD123681B693370236859691A
:10446800480701D4013603E01B6995B27370023620
:10447800002DA0D123680F491A6822F400621A603F
:10448800204601223B46FEF729FF00289ED1012342
:1044980084F8353084F8345002E0404600E00220C9
:1044A80009B0BDE8F08F00BF3002010840000100EC
:1044B80004000100020010002DE9F74F012B1F46F0
:1044C80004468A469346DDF83090BDF8348006D01D
:1044D800102B04D0214840F24C7109F05FFD94F88C
:1044E8003530012B1D4635D1B9F1000F30D0B8F168
:1044F800000F2DD02068866916F002062AD194F89C
:104508003420012A26D0322284F83430232384F838
:104518003520C4F82490A663A4F82880A4F82A803B
:104528002046009351465A463B46FEF7D9FF38B11C
:10453800A36B84F83460042B00D109E003200AE05F
:10454800236884F834005A6842F4E0625A6002E052
:10455800284600E00220BDE8FE8F00BF30020108B7
:104568002DE9F04F87B0012B1F4604468A46934633
:10457800DDF84090BDF8448006D0102B04D03948AF
:1045880040F2957109F00AFD94F83530012B1D466B
:1045980064D1B9F1000F5FD0B8F1000F5CD020688A
:1045A800866916F0020659D194F83420012A55D0AC
:1045B800422284F83430232384F83520C4F8249028
:1045C800A663A4F82880A4F82A80204600935146C0
:1045D8005A463B46FEF713FF38B1A36B84F83460A4
:1045E800042B00D138E0032039E0638D9BB2012B06
:1045F8000ED123681A6822F480621A605A690392FD
:104608009A690392039A1A6842F400721A601AE0CF
:10461800628D236892B2022A1A680CD122F4806251
:104628001A601A6842F400621A605A6904929B6917
:104638000493049B07E042F480621A605A69059269
:104648009B690593059B23685A68002042F4E06241
:1046580084F834005A6002E0284600E0022007B0DF
:10466800BDE8F08F300201082DE9F74F012B98467D
:1046780004468B469246DDF83090BDF8346006D08B
:10468800102B04D0254840F2FC7109F087FC94F8FF
:104698003530012B1D463DD1B9F1000F38D0002E21
:1046A80036D02268976917F0020733D194F834108E
:1046B80001292FD084F83430322384F83530268508
:1046C800A763E06A66853346154EC4F82490C6632E
:1046D800144E494610328664FDF7A4F9232300934B
:1046E8002046434659465246FEF7FAFE034638B17D
:1046F800A36B84F83470042B00D109E003200AE08E
:104708002268516841F40061516084F8343002E055
:10471800284600E00220BDE8FE8F00BF30020108F5
:10472800ED4C0008694C00082DE9F04F85B0012BCD
:10473800984604468B469246DDF83890BDF83C50C2
:1047480006D0102B04D0304840F64A0109F026FC68
:1047580094F83530012B1E4652D1B9F1000F4DD0D7
:10476800002D4BD021688F6917F0020748D194F8C3
:104778003420012A44D0206BDFF890E084F83430EC
:10478800422384F83530C4F82490A76325856585CD
:10479800C0F83CE0DFF878E010314A462B46C0F814
:1047A80048E0FDF73FF92323009320465946524637
:1047B8004346FEF724FE38B1A36B84F83470042B0B
:1047C80000D11BE003201CE0012D236804D11A68E6
:1047D80022F480621A6003E05A6842F480525A60F8
:1047E80023685A6842F400625A605A6903929B69C6
:1047F80000200393039B84F8340002E0304600E075
:10480800022005B0BDE8F08F300201088F4C000887
:10481800694C00082DE9F74F044690F83500012847
:1048280091461F4671D123689B6913F002026CD12F
:1048380094F83430012B68D0022384F8353084F89A
:104848003400A263904601F0FE0A4FF0030B236880
:104858001A6842F480721A6020464FF00111002253
:104868003B46FEF73BFD08B103204FE02368C3F841
:1048780010A0FCF73FFB054608E017B984F835B0EF
:1048880004E0FCF737FB401BB842F7D823685969A6
:104898005A6994F83530C1F34001C2F3802211B946
:1048A8000AB9032BE9D125681949012684F835602E
:1048B8006B6913F0020F2B6843F400732B6010D060
:1048C8006B690193AB692046019332463B46019DD3
:1048D800FEF704FD0028C7D184F8356084F8340059
:1048E80014E06FF480636B61204632463B46FEF766
:1048F800F5FC0028B8D108F10108C845A7D384F809
:10490800340084F83560304600E00220BDE8FE8FB0
:104918000200100070477047704770477047704733
:1049280003689A6973B5D107044640F1C2809A6951
:10493800520744D55D6958685A69596815F0800F5F
:10494800C2F3800211D040050FD58AB9626A12F805
:10495800011B1961618D62624A1E92B26285628D85
:1049680092B2002A40F00D813EE0002A00F0098151
:104978008A0540F10681628D92B202B1DFE05A6881
:10498800804922F4E0625A601A6842F400721A60A0
:10499800204601222323FEF7A1FC002840F0F180E5
:1049A80094F83530322B4FF0010384F83530204627
:1049B80002D1FFF7B3FFE4E0FFF7ACFFE1E05E6987
:1049C8005D685A69596816F0400FC2F380021FD01B
:1049D80015F4806F1CD0F2B9428D92B2032A00D927
:1049E800C6E0023A012A04D85A6822F480625A6062
:1049F800C7E05D68426A634925F4E0655D601B694C
:104A080002F8013B438D4262013B9BB2438532E091
:104A1800002A00F0B6808A0540F1B380628D92B218
:104A2800032A05D11968626A21F4806119603CE0A3
:104A3800618D626A89B2022937D1186840F4007022
:104A4800186018691346951C03F8010B668D63629C
:104A5800731E20689BB2638503695370628D236857
:104A68006562013A92B262855A6822F4407201F591
:104A780080115A60204601222323FEF72FFC0028CC
:104A88007FD123681A6822F400621A6094F83530DE
:104A9800422B4FF0010384F83530204602D1FFF74E
:104AA8003EFF6EE0FFF737FF6BE01B6902F8013B42
:104AB80049E05E695D6859699A6916F0020FC5F3A5
:104AC800402501F0100102F0040206D01DB35A6916
:104AD80000929B690093009B53E0E1B1DDB15A68F5
:104AE800284922F4E0625A605A6901921A6842F031
:104AF80001021A60019A1A6822F480621A602A4632
:104B08002323FEF7EBFB00283BD184F835502046E1
:104B1800FFF703FF35E05D695868C2B15A69596803
:104B280015F0800FC2F3800203D0400501D50AB901
:104B380002E032B38A0524D5628D92B20AB3626A62
:104B480012F8011B1961638D6262013B17E05A6913
:104B5800596815F0400FC2F3800203D0400501D513
:104B68000AB902E06AB18A050BD5628D92B242B1E8
:104B78001A69636A03F8012B628D6362531E9BB244
:104B880063857CBD020010007047036859695A6844
:104B9800C90510B5044608D5D00506D5A26B42F064
:104BA8000102A2636FF480725A6159695A688905D3
:104BB80008D5D00506D5A26B42F00202A2636FF4B5
:104BC80000725A6159695A6849052BD5D20529D509
:104BD8009869618D94F83520C00789B21BD4D1B982
:104BE800122A18D15A681D4922F4E0625A606FF4FB
:104BF80080625A611A6822F480621A602046012293
:104C08002323FEF76BFB68B9012384F8353020466F
:104C1800FFF782FE06E0A26B42F00402A2636FF483
:104C280080625A61236859695A68090508D5D00510
:104C380006D5A26B42F00802A2636FF400625A61C3
:104C4800A26B4AB1012284F835201A6822F4006266
:104C58001A602046FFF798FF10BD00BF0200100041
:104C6800806B08B503681A6822F480621A60002312
:104C78004385012380F83530836B43F01003836349
:104C8800FFF782FF08BD10B5846B154923681A68C1
:104C980042F400721A605A6822F480525A601A6804
:104CA80022F480621A605A6822F400625A60002373
:104CB8006385204601222323FEF710FB18B1A36B5E
:104CC80043F02003A363012384F83530A36B204607
:104CD80013B1FFF759FF10BDFFF721FE10BD00BF4C
:104CE8000200100010B5846B1649204600222323C9
:104CF800FEF7F4FA18B1A36B43F02003A36323680B
:104D080011491A6842F400721A605A6822F4006263
:104D18005A6000236385204601222323FEF7DEFA2A
:104D280018B1A36B43F02003A363012384F8353043
:104D3800A36B204613B1FFF727FF10BDFFF7EEFD69
:104D480010BD00BF040001000200100013B5846B01
:104D58001949204600222323FEF7C0FA18B1A36B95
:104D680043F02003A363236814495A6901921A681F
:104D780042F001021A60019A1A6822F480621A60ED
:104D88005A6822F400625A60002363852046012293
:104D98002323FEF7A3FA18B1A36B43F02003A36300
:104DA800012384F83530A36B204613B1FFF7ECFEDE
:104DB80001E0FFF7B2FD1CBD100001000200100069
:104DC80010B5846B4FF48231204600222323FEF76E
:104DD80085FA18B1A36B43F02003A3632368124933
:104DE8006FF480625A611A6822F480621A605A6805
:104DF80022F400625A60002363852046012223239F
:104E0800FEF76CFA18B1A36B43F02003A3630123E8
:104E180084F83530A36B204613B1FFF7B5FE10BDFB
:104E2800FFF77AFD10BD00BF0200100010B5846BBB
:104E3800144923681A6842F400721A605A6822F406
:104E480080525A601A6822F480621A605A6822F402
:104E580000625A6000236385204601222323FEF75F
:104E68003DFA18B1A36B43F02003A363012384F830
:104E78003530A36B204613B1FFF786FE10BDFFF750
:104E88004AFD10BD0200100010B5846B164920467B
:104E980000222323FEF722FA18B1A36B43F0200364
:104EA800A363236811491A6842F400721A605A68A9
:104EB80022F400625A6000236385204601222323DE
:104EC800FEF70CFA18B1A36B43F02003A363012388
:104ED80084F83530A36B204613B1FFF755FE10BD9B
:104EE800FFF718FD10BD00BF04000100020010000C
:104EF80090F835007047806B704700BF70472DE908
:104F0800F84F0446002800F025810368934A93422D
:104F180007D002F58062934203D09148DC2109F062
:104F28003DF8636863B1B3F5807F09D0B3F5007FBE
:104F380006D0B3F5407F03D08948DD2109F02EF86B
:104F4800A3685BB1102B09D0202B07D0302B05D0DC
:104F5800B02B03D08248DE2109F020F8E368012B4A
:104F680007D9032B05D0052B03D07D48DF2109F095
:104F780015F82369B3F5007F04D01BB17848E02108
:104F880009F00CF86369774AA3F5FA51914205D9FB
:104F9800022B03D07248E12109F000F8A3692BB174
:104FA800082B03D06E48E22108F0F8FFE369012BD3
:104FB80003D96B48E32108F0F1FF236A012B03D9D9
:104FC8006748E42108F0EAFF94F83D3013B9204619
:104FD80008F05EFA22686069022184F83D10D369FE
:104FE80023F47B6323F00F03D36188421162D669EF
:104FF80050D0E568E3695C49002D14BF02270127FA
:10500800012B08D18B681D022CD48B68574D43F4B3
:1050180000038B6027E00B685B0104D4012084F84F
:105028003D00BDE8F88F8B681B0203D58B6823F41D
:1050380000038B604C4B596811F4800F596814BFFA
:105048004B4D4C4D01F03F01B5FBF1F1D3F88450C5
:10505800D3F88430C5F388156943C3F30273B1FBF1
:10506800F3F500E0414D2169B1F5007F4FF00A03E7
:1050780001D12D0A02E07901B5FBF1F56B43B3FBD1
:10508800F0F005300A23B0FBF3F303F001055808EC
:105098002D0201E000231D46A0F1020BBBF1FE0F1B
:1050A8006168D4F808A0D4F80C90D4F8188028BF08
:1050B800022028BF00250543206946EA010C45EA7D
:1050C80000074CF4006C17624CEA0A0C276A4CEA99
:1050D800090C4CEA0800012FD06134D11F48264D35
:1050E80082420CBF2E464FF0402618BF4FF0402595
:1050F800F06920F47B6020F00F00F0610220286244
:10510800B1F5007FE86908D039B1B1F5407F07D023
:10511800B1F5807F08BF002303E04FF4807300E0FF
:1051280000234AEA090949F4006949EA080848EAF3
:1051380000081149094882420CBF0A464FF0402234
:1051480048EA0303D36100200123206484F83D303A
:10515800BDE8F88F0120BDE8F88F00BF0038004097
:105168006B020108C0CE0200003802400080BB007C
:1051780000127A000024F40000340040704710B593
:10518800044660B1022380F83D3008F025FA002378
:105198002364184684F83D3084F83C3010BD012063
:1051A80010BD90F83D30012B01D002207047002936
:1051B8002CD05AB303684162D969DB6901F0070151
:1051C800032903D003F00703052B01D1520092B243
:1051D8000285428590F83C30012BE6D0012180F809
:1051E8003C1003681221002280F83D1002645968BF
:1051F80041F0A0015960D969490503D4D96941F43E
:105208008061D96180F83C200020704718467047BB
:1052180090F83D30012B01D00220704700292CD096
:105228005AB30368C162D969DB6901F00701032930
:1052380003D003F00703052B01D1520092B2028676
:10524800428690F83C30012BE6D0012180F83C10D2
:1052580003682221002280F83D100264596841F059
:1052680060015960D969490503D4D96941F480615D
:10527800D96180F83C20002070471846704738B53F
:105288000446002943D0002A41D090F83D30012B34
:1052980001D0022038BD03684162D869DB6900F09B
:1052A8000700032803D003F00703052B01D15200A0
:1052B80092B22285628594F83C30012BE9D0012313
:1052C80084F83C30122384F83D30606B114D22681D
:1052D80000232364238D05640F4DC5630F4D0C32E5
:1052E8009BB28564FCF79EFB2368DA69520503D4F8
:1052F800DA6942F48062DA615A68900703D45A681E
:1053080042F002025A60002084F83C0038BD0120B7
:1053180038BD00BFD3550008DF550008A356000864
:1053280057B50E46044600294FD0002A4DD090F8B4
:105338003D30012B01D0022048E00368E162D969C1
:10534800DB6901F00701032903D003F00703052BEC
:1053580001D1520092B22286628694F83C30012B29
:10536800E9D0012384F83C30222384F83D302168B9
:10537800A06B174A00232364CB690264154A03F41F
:105388004073C263144AB3F5407F826404D1CB688A
:1053980001938B680193019B238E0C3132469BB29B
:1053A800FCF740FB2368DA69500503D4DA6942F454
:1053B8008062DA615A68D10703D45A6842F0010260
:1053C8005A60002084F83C0000E001205EBD00BF68
:1053D8003B56000847560008A356000890F83C3092
:1053E800012B10B541D0012380F83C3090F83D30B6
:1053F800122B04D103685A6822F0020207E090F8E1
:105408003D30222B05D103685A6822F001025A6008
:1054180026E090F83D30322B22D141680368144AC7
:1054280011B1B1F5007F0DD15968124C21F002017C
:1054380093420CBF22464FF040225960536823F034
:1054480001030CE059680B4C21F0010193420CBF99
:1054580022464FF040225960536823F002035360FC
:10546800002380F83C30184610BD022010BD00BF54
:10547800003800400034004090F83C30012B10B553
:1054880049D0012380F83C3090F83D30122B04D1EC
:1054980003685A6842F0020207E090F83D30222B78
:1054A80005D103685A6842F001025A6026E090F874
:1054B8003D30322B22D141680368184A11B1B1F549
:1054C800007F0DD15968164C41F0020193420CBF80
:1054D80022464FF040225960536843F001030CE024
:1054E80059680F4C41F0010193420CBF22464FF01E
:1054F80040225960536843F0020353600368DA6935
:10550800520503D4DA6942F48062DA61002380F834
:105518003C30184610BD022010BD00BF00380040C6
:105528000034004090F83C30012B10B5044644D0BC
:105538000368026A012180F83C10596821F00201D1
:1055480059605968012A21F00101596012D11C4A99
:105558001C49934214BF4FF040220A460CBF0B4629
:105568004FF04023516821F0020151605A6822F03F
:1055780001025A60606B08B1FCF7A0FAA06B08B191
:10558800FCF79CFA2368226AD969012A21F4806110
:10559800D9610AD10B4A0A498B420CBF13464FF016
:1055A8004023DA6922F48062DA610023012284F858
:1055B8003D20184684F83C3010BD022010BD00BFC5
:1055C8000038004000340040704708B5806BFBF796
:1055D800C8FA08BD704708B50368806B1B6813F4E8
:1055E80080721DD1036842855968026A21F0020160
:1055F800012A59600AD10C4A0C498B420CBF134648
:105608004FF040235A6822F001025A6090F83D306A
:10561800322B02D1438E9BB213B9012380F83D305F
:10562800FBF793FA08BD00BF003400400038004083
:10563800704708B5806BFBF797FB08BD704708B546
:105648000368806B1B68D9051ED40368026A596811
:10565800012A21F0010159600AD10D4A0D498B42F6
:105668000CBF13464FF040235A6822F002025A60DA
:105678000023438690F83D30322B02D1438D9BB2F4
:1056880013B9012380F83D30FBF769FB08BD00BF63
:1056980000340040003800407047806B08B5002394
:1056A80043854386012380F83D30036C43F0200393
:1056B8000364FBF75EFB08BD30B5036A87B00022C0
:1056C800012B0446ADF8022000F08C8090F83D30A4
:1056D800222B48D1036899685A68C90733D5500600
:1056E80031D594F83D20222A2DD194F83C20012A66
:1056F80029D0012284F83C20D968E26A22F8021BEA
:10570800618EE2624A1E92B26286DA6902F44072DF
:10571800B2F5407F04D1DA6805929A680592059A35
:10572800628E92B262B9596821F060015960012312
:1057380084F83D30204684F83C20FBF710FB02E05B
:10574800002384F83C30236899685A6849060AD5CA
:10575800900608D5DA6801929B680193019B236C37
:1057680043F00203236494F83D30122B40F0FC8090
:10577800236899685A68890727D5100625D594F8AB
:105788003D20122A21D194F83C20012A1DD0626ABA
:1057980032F8020B012184F83C10D860608D6262F7
:1057A800421E92B26285628D92B25AB9586820F050
:1057B800A000586084F83D10204684F83C20FBF790
:1057C800C4F902E0002384F83C30236899685A68D9
:1057D800090740F1C980900640F1C6809B68029392
:1057E800029B5FE00368D969DA6901F44071B1F599
:1057F800007F02D012F4407F59D16049604A8B4241
:1058080018BF4FF0402291685268C9070ED552065A
:105818000CD5DA69DB6902F44072B2F5007F03F453
:10582800407300D013B9204600F014FC2368534994
:10583800534A8B420CBF10464FF0402085684068A1
:1058480015F0400F11D080060FD58B4218BF4FF0CE
:105858004022D16889B2ADF80210926892B2ADF8D0
:105868000220226C42F00802226499685A6889076B
:105878000ED510060CD5DA69DB6902F44072B2F570
:10588800007F03F4407300D013B9204600F0E2FB18
:10589800236899685A68090766D5900664D59B6895
:1058A8000393039B236C43F0010323645CE0996832
:1058B8005A68C90710D552060ED5DA69DB6902F4B1
:1058C8004072B2F5407F03F4407302D0B3F5807F95
:1058D80002D1204600F0BEFB236899685A684D063D
:1058E8000AD5900608D5DA6804929A680492049A50
:1058F800226C42F0020222642049214A8B4218BFDE
:105908004FF0402291685268890710D512060ED5CB
:10591800DA69DB6902F44072B2F5407F03F4407340
:1059280002D0B3F5807F02D1204600F093FB2168B6
:10593800124A134B91420CBF18464FF0402085681D
:10594800406815F0080F0FD080060DD5914218BF9A
:105958004FF040239B689BB2ADF80230236C43F0B4
:1059680004032364BDF80230236C2BB1012384F8AF
:105978003D302046FBF7FDF907B030BD0038004048
:105988000034004090F83D007047006C70472DE9E6
:10599800F041904604460E461D46FBF7ABFA074613
:1059A800B8F1000F09D021E06B1C07D005B90FE052
:1059B800FBF7A0FAC01BA8420AD8226893683340B4
:1059C800B342F1D10020BDE8F081681C0FD045B981
:1059D800012384F83D300023032084F83C30BDE8DF
:1059E800F081FBF787FAC01BA842F1D822689368B8
:1059F8003340B342E9D0E5E7F7B50E4604461F4603
:105A080000294DD0002A4BD090F83D30012B01D011
:105A1800022048E00168C869CB6900F00701032942
:105A280003D003F00703052B01D1520092B222865E
:105A3800628694F83C30012BEAD0012384F83C308C
:105A48002268222384F83D30D369590503D4D369E9
:105A580043F48063D361D36903F44073B3F5407FA3
:105A680010D1D368019393680193019B0AE0FFF773
:105A78008EFFB8B92268D36826F8023B638E013BD3
:105A88009BB26386658EADB22046012100223B465B
:105A9800002DECD184F83D10284684F83C5002E0F3
:105AA800012000E00320FEBDF8B50D4604461E4661
:105AB80000294CD0002A4AD090F83D30012B01D063
:105AC800022345E00368D969DB6901F0070103296E
